:100000000C9414080C945B080C945B080C945B082B
:100010000C945B080C945B080C945B080C945B08D4
:100020000C945B080C945B080C945D2D0C942F2EA3
:100030000C94B7230C945B080C945B080C945B083D
:100040000C945B080C945B080C945B080C945B08A4
:100050000C945B080C941F240C945B080C945B08B4
:100060000C945B080C945B080C945B080C945B0884
:100070000C945B080C945B080C945B080C945B0874
:100080000C945B080C945B080C945B080C945B0864
:100090000C945B080C945B080C945B080C945B0854
:1000A0000C945B080C945B080C945B08C00AC20AB1
:1000B000CD0AC40AC60AC80ACA0ACC0ACF0AD10A9B
:1000C000D30ADE0AD50AD70AD90ADB0ADD0AE00A12
:1000D0006719671999199919D719F7198C1B8C1B6E
:1000E000391A8C1BE61AE61A581B611B8C1B851BE0
:1000F000F31AF31AF31AF31AF31AF31AF31AF31A98
:10010000F31AF31AF31AF31AF31AF31AF31AF31A87
:10011000041B121B191B201B2A1B1B1C1B1C2D1C28
:100120002D1C241C2D1C2D1C2D1C1B1C1B1C291CB8
:100130002D1C2D1C291C9C2EC32EB52FC32EB52F74
:100140000F2F322FB52F882F972F07634236B79B7B
:10015000D8A71A39685618AEBAAB558C1D3CB7CC27
:100160005763BD6DEDFD753EF6177231BF0000009F
:10017000803F05A84CCDB2D44EB93836A9020C50F8
:10018000B9918688083CA6AAAA2ABE000000803F32
:1001900001E3025100002942A800AA00A9003D0085
:1001A0003E003F0040004100420043004400450043
:1001B000460047004C0035001E001F0020002100B3
:1001C0002200230024002500260027002D002E00F9
:1001D0004C002A004A002B00000014001A000800FE
:1001E000150017001C0018000C00120013002F004F
:1001F000300031004B00E000000004001600070052
:1002000009000A000B000D000E000F00330034003F
:10021000280000004E00E10001511D001B000600F7
:1002200019000500110010003600370038000000EA
:10023000E50052004D00E000E3000000E2002C0069
:1002400000002C0000002C000000E6000151E4003A
:10025000500051004F0001000100010001000100A9
:100260000100010001000100010001000100010086
:100270000100010001000100010001000100010076
:100280000100010001000100010001000100010066
:100290000100005C010001000000C25CC35CC55CA1
:1002A000C65CC75CC85CC95CCA5C01000100010097
:1002B0000100010001000100000001000100010037
:1002C0000100010001000100010001000100010026
:1002D0000100000001000100010001000100BD5CFF
:1002E000BF5CBE5CC05C01000100010001000000B9
:1002F00001000100010001000100000001000100F7
:1003000000000100000001000000010001000100E8
:100310000100010001000100013002300100010074
:1003200001000100010001000100010001000100C5
:1003300001000100010001000100010001000100B5
:1003400001000100010001000100010001000100A5
:100350000100010001000100000001000100010096
:100360000100010001000100010001000100010085
:100370000100010001000100000001000100010076
:100380000100010001000100010001000100010065
:100390000100000001000100010001000100010056
:1003A0000100010001000100010001000100000046
:1003B0000100010001000100010000000100010036
:1003C0000000010000000100000001000100010028
:1003D0000100010001000100010001000100010015
:1003E0000100010001000100010001000100010005
:1003F00001000100010001000100010001000100F5
:1004000001000100010001000100010001000100E4
:1004100001000100010001000000010001000100D5
:1004200001000100010001000100010001000100C4
:1004300001000100010001000000010001000100B5
:1004400001000100010001000100010001000100A4
:100450000100000001000100010001000100010095
:100460000100010001000100010001000100000085
:100470000100010001000100010000000100010075
:100480000000010000000100000001000100010067
:100490000100010001000100010001000100010054
:1004A0000100010001000100010001000100010044
:1004B0000100010001000100010001000100010034
:1004C0000100010001000100010001000100010024
:1004D0000100010001000100000001000100010015
:1004E0000100010001000100010001000100010004
:1004F00001000100010001000000010001000100F5
:1005000001000100010001000100010001000100E3
:1005100001000000010001000100010001000100D4
:1005200001000100010001000100010001000000C4
:1005300001000100010001000100000001000100B4
:1005400000000100000001000000010001000100A6
:100550000100010001000100010001000100010093
:100560000100010001000100010001000100010083
:100570000100010001000100010001000100010073
:100580000100010001000100010001000100010063
:100590000100010001000100000001000100010054
:1005A0000100010001000100010001000100010043
:1005B0000100010001000100000001000100010034
:1005C0000100010001000100010001000100010023
:1005D0000100000001000100010001000100010014
:1005E0000100010001000100010001000100000004
:1005F00001000100010001000100000001000100F4
:1006000000000100000001000000010001000100E5
:1006100001000100010001000100010001000100D2
:1006200001000100010001000100010001000100C2
:1006300001000100010001000100010001000100B2
:1006400001000100010001000100010001000100A2
:100650000100010001000100000001000100010093
:100660000100010001000100010001000100010082
:100670000100010001000100000001000100010073
:100680000100010001000100010001000100010062
:100690000100000001000100010001000100010053
:1006A0000100010001000100010001000100000043
:1006B0000100010001000100010000000100010033
:1006C0000000010000000100000001000100010025
:1006D0000100010001000100010001000100010012
:1006E0000100010001000100010001000100010002
:1006F00001000100010001000100010001000100F2
:1007000001000100010001000100010001000100E1
:1007100001000100010001000000010001000100D2
:1007200001000100010001000100010001000100C1
:1007300001000100010001000000010001000100B2
:1007400001000100010001000100010001000100A1
:100750000100000001000100010001000100010092
:100760000100010001000100010001000100000082
:100770000100010001000100010000000100010072
:100780000000010000000100000001000100010064
:100790000100010001000100010001000100010051
:1007A0000100010001000100010001000100010041
:1007B0000100010001000100010001000100010031
:1007C0000100010001000100010001000100010021
:1007D0000100010001000100000001000100010012
:1007E0000100010001000100010001000100010001
:1007F00001000100010001000000010001000100F2
:1008000001000100010001000100010001000100E0
:1008100001000000010001000100010001000100D1
:1008200001000100010001000100010001000000C1
:1008300001000100010001000100000001000100B1
:1008400000000100000001000000010001000100A3
:100850000100010001000100010001000100010090
:100860000100010001000100010001000100010080
:100870000100010001000100010001000100010070
:100880000100010001000100010001000100010060
:100890000100010001000100000001000100010051
:1008A0000100010001000100010001000100010040
:1008B0000100010001000100000001000100010031
:1008C0000100010001000100010001000100010020
:1008D0000100000001000100010001000100010011
:1008E0000100010001000100010001000100000001
:1008F00001000100010001000100000001000100F1
:1009000000000100000001000000010001000100E2
:1009100001000100010001000100010001000100CF
:1009200001000100010001000100010001000100BF
:1009300001000100010001000100010001000100AF
:10094000010001000100010001000100010001009F
:100950000100010001000100000001000100010090
:10096000010001000100010001000100010001007F
:100970000100010001000100000001000100010070
:10098000010001000100010001000100010001005F
:100990000100000001000100010001000100010050
:1009A0000100010001000100010001000100000040
:1009B0000100010001000100010000000100010030
:1009C0000000010000000100000001000100010022
:1009D000010001000100010001000100010001000F
:1009E00001000100010001000100010001000100FF
:1009F00001000100010001000100010001000100EF
:100A000001000100010001000100010001000100DE
:100A100001000100010001000000010001000100CF
:100A200001000100010001000100010001000100BE
:100A300001000100010001000000010001000100AF
:100A4000010001000100010001000100010001009E
:100A5000010000000100010001000100010001008F
:100A6000010001000100010001000100010000007F
:100A7000010001000100010001000000010001006F
:100A80000000010000000100000001000100010061
:100A9000010001000100010001000100010001004E
:100AA000010001000100010001000100010001003E
:100AB000010001000100010001000100010001002E
:100AC000010001000100010001000100010001001E
:100AD000010001000100010000000100010001000F
:100AE00001000100010001000100010001000100FE
:100AF00001000100010001000000010001000100EF
:100B000001000100010001000100010001000100DD
:100B100001000000010001000100010001000100CE
:100B200001000100010001000100010001000000BE
:100B300001000100010001000100000001000100AE
:100B400000000100000001000000010001000100A0
:100B5000010001000100010001000100010001008D
:100B6000010001000100010001000100010001007D
:100B7000010001000100010001000100010001006D
:100B8000010001000100010001000100010001005D
:100B9000010001000100010000000100010001004E
:100BA000010001000100010001000100010001003D
:100BB000010001000100010000000100010001002E
:100BC000010001000100010001000100010001001D
:100BD000010000000100010001000100010001000E
:100BE00001000100010001000100010001000000FE
:100BF00001000100010001000100000001000100EE
:100C000000000100000001000000010001000100DF
:100C100001000100010001000100010001000100CC
:100C200001000100010001000100010001000100BC
:100C300001000100010001000100010001000100AC
:100C4000010001000100010001000100010001009C
:100C5000010001000100010000000100010001008D
:100C6000010001000100010001000100010001007C
:100C7000010001000100010000000100010001006D
:100C8000010001000100010001000100010001005C
:100C9000010000000100010001000100010001004D
:100CA000010001000100010001000100010000003D
:100CB000010001000100010001000000010001002D
:100CC000000001000000010000000100010001001F
:100CD000010001000100010001000100010001000C
:100CE00001000100010001000100010001000100FC
:100CF00001000100010001000100010001000100EC
:100D000001000100010001000100010001000100DB
:100D100001000100010001000000010001000100CC
:100D200001000100010001000100010001000100BB
:100D300001000100010001000000010001000100AC
:100D4000010001000100010001000100010001009B
:100D5000010000000100010001000100010001008C
:100D6000010001000100010001000100010000007C
:100D7000010001000100010001000000010001006C
:100D8000000001000000010000000100010001005E
:100D900001000100010000047F3F1F64321464322F
:100DA00014783C1E1E140A056801F000B400780097
:100DB0005A000000000000010101010101010101D0
:100DC00002020202020202020203030303030303FC
:100DD00003040404040404050505050506060606C7
:100DE0000607070707080808080909090A0A0A0A7E
:100DF0000B0B0B0C0C0C0D0D0D0E0E0F0F0F10101E
:100E000011111112121313141415151616171718A1
:100E10001819191A1A1B1C1C1D1D1E1F1F2020210A
:100E200022222324252526272728292A2B2B2C2D4F
:100E30002E2F2F30313233343536363738393A3B6E
:100E40003C3D3E3F4041424344464748494A4B4C63
:100E50004D4F50515253555657585A5B5C5E5F6028
:100E60006263646667696A6C6D6E707173747678BC
:100E7000797B7C7E8081838486888A8B8D8F91921A
:100E80009496989A9B9D9FA1A3A5A7A9ABADAFB13E
:100E9000B3B5B7B9BBBDBFC1C4C6C8CACCCFD1D327
:100EA000D6D8DADCDFE1E4E6E8EBEDF0F2F5F7FACC
:100EB000FCFF0403300000000C034B004200440020
:100EC0003700350000000E0364007A0074006500EE
:100ED0006300680000000403090409023B000201EA
:100EE00000A0FA0904000001030101000921110119
:100EF00000012240000705810308000A09040100DF
:100F0000010300000009211101000122C0000705B2
:100F1000820320000A1201100100000008EDFE60AB
:100F20006001000102030105010902A10185020916
:100F300001A100050919012905150025019505756F
:100F400001810295017503810105010930093115FF
:100F500081257F95027508810609381581257F95C1
:100F60000175088106050C0A38021581257F950157
:100F700075088106C0C005010980A101850316011D
:100F8000002603001A81002A830075109501810054
:100F9000C0050C0901A1018504160100269C021A56
:100FA00001002A9C02751095018100C00501090607
:100FB000A1018505050719E029E715002501950818
:100FC0007501810205081901290595057501910230
:100FD0009501750391010507190029EF15002501F9
:100FE00095F075018102C005010906A101050719E7
:100FF000E029E71500250195087501810295017525
:1010000008810105081901290595057501910295C9
:1010100001750391010507190029FF150026FF003E
:10102000950675088100C00011241FBECFEFDAE0DD
:10103000DEBFCDBF04B603FE27C08091A50290910C
:10104000A602A091A702B091A8028730904BA740BA
:10105000B04BD1F41092A5021092A6021092A702F2
:101060001092A80214BE84B7877F84BF0FB6F8948D
:10107000A895809160008861809360001092600064
:101080000FBEE0E0F8E3099511E0A0E0B1E0E6E092
:10109000F8E602C005900D92A633B107D9F722E019
:1010A000A6E3B1E001C01D92A53AB207E1F70E94A4
:1010B0007F2A0C9401340C940000662319F06130EF
:1010C00041F00EC0FC018281882351F085E991E056
:1010D0000895FC018281882319F080E991E0089548
:1010E00080E090E008950895089581E0089581FFDB
:1010F00002C0229A01C022982A98089581E008959A
:101100000C9475080C943C0ECF92DF92EF92FF92F4
:10111000863030F4811105C0909180009F7D04C01D
:1011200085E090918000906290938000282F30E0BD
:10113000AFEFBFEF0E94923325E030E040E050E097
:101140000E946A332C3784E138074105510530F499
:10115000C90169E070E00E94423329C0DA01C90187
:101160008A50974DAF4FBF4F6627782F892F9A2F00
:1011700025EF38E241E050E00E946A3369017A01CC
:10118000CA01B9010E9432339B01AC01C701B6010B
:101190000E943233BB27A92F982F872F009721E079
:1011A000A207B10511F0BC0102C06FEF7FEF709391
:1011B0008B0060938A00FF90EF90DF90CF900895AE
:1011C000269A2E9882E28093800089E180938100A4
:1011D0008FEF9FEF90938700809386000C94FF27FA
:1011E0000E944D22811102C00E94CE220E94E0087E
:1011F0000C943A0E0C9477080C94FA0808950E9407
:101200000B1C0E94FE082FEF84E39CE021508040DD
:101210009040E1F700C000000C944524FF920F932A
:101220001F93CF93DF938C01FC01C081D18180910A
:101230008901811113C08281882349F0CE010E9467
:101240004021F82E682FCE010E94E52004C0CE0177
:101250000E941421F82EBE018F2D04C0CE010E94E1
:101260004021BE010E948D0BEC01B8010E94800854
:10127000882309F44AC2CC3CFCE5DF0709F4DFC04F
:10128000E8F5C43C9CE5D90709F4A3C0F8F4C531DE
:10129000FCE5DF0778F4C2308CE5D80708F04EC1D2
:1012A000C1159CE5D90709F465C0C130DC4509F4D6
:1012B00069C01EC2C23CFCE5DF0709F476C008F035
:1012C0007CC0C631DC4509F4ECC112C2F801828150
:1012D000C83CFCE5DF0709F49AC040F4C63CECE5E5
:1012E000DE0709F488C008F480C08BC0CA3C9CE5C6
:1012F000D90709F498C008F490C09BC0C43DFCE530
:10130000DF0709F4F6C0C0F4F8018281C03DFCE5B6
:10131000DF0709F4BDC040F4CE3CECE5DE0709F47C
:101320009BC008F494C0A6C0C23D9CE5D90709F44F
:10133000CDC008F4BDC0D8C0C83DFCE5DF0709F446
:1013400095C150F4F8018281C63DFCE5DF0709F440
:1013500047C108F4DEC065C1CC3DECE5DE0709F409
:10136000E4C0CD3DFCE5DF07C1F0CB3DDC4509F035
:10137000BFC1D4C0F8018281882309F4C6C10E948C
:10138000FF08C3C1F8018281882309F4BEC180919E
:101390002B02816080932B02B8C1F80182818823DF
:1013A00009F4B3C10E94CE22B0C1F8018281882322
:1013B00009F4ABC10E94BE12A8C1F8018281882342
:1013C00009F4A3C10E941122827261F00E9463128B
:1013D0009CC1F8018281882309F497C10E941122DF
:1013E0008272A1F30E94551290C1882309F48DC125
:1013F0000E9458118AC1882309F487C10E947C1178
:1014000084C1882309F481C10E949C117EC1882374
:1014100009F47BC10E94BC1178C1882309F475C10D
:101420000E94DC1172C1882309F46FC10E94FC1173
:101430006CC1882309F469C10E94121066C1F801C9
:101440008281882309F461C10E9427105EC188232C
:1014500009F45BC181E029C0882309F456C10E94C8
:101460000910823028F00E940910853008F4BACFA4
:1014700082E01BC0882309F448C10E94091086300D
:1014800028F00E940910883008F4ACCF86E00DC027
:10149000882309F43AC10E940910893028F00E947B
:1014A00009108E3008F49ECF89E00E9466122DC18B
:1014B000882309F42AC10E9409108F3028F00E9465
:1014C0000910843108F48ECF8FE0EFCF882309F420
:1014D0001CC10E940910853128F00E940910873133
:1014E00008F480CF85E1E1CF882309F40EC188E1BB
:1014F000DCCFF8018281882309F407C10E9409101A
:10150000893128F00E940910823208F46BCF89E1FA
:10151000CCCF882309F4F9C083E2C7CFF8018281D8
:10152000882309F4F2C080E006C0F8018281882394
:1015300009F4EBC082E00E94202BE7C0F801828111
:10154000882309F4DAC00E944D22811102C00E9452
:10155000CE220E946A2290E0909396028093950298
:10156000FE01E350FC45E231F10530F4EA5AFF4F49
:10157000809195020C948C3380919502816027C0F4
:10158000826025C0846023C0806121C080621FC04A
:1015900080641DC080681BC08460886018C08E7F16
:1015A00016C08D7F14C08B7F12C08F7E10C08F7DC0
:1015B0000EC08F7B0CC08F770AC08B7F877F07C0E0
:1015C00087FB222720F991E0922790FB87F98093EF
:1015D0009502809195020E946E220E940B1C95C07C
:1015E000882351F010923B010E94E9239093380127
:1015F0008093370182E020C080913B0181110FC0B0
:1016000080913701909138010E94F523883C910523
:1016100030F486E20E949D1786E20E94BB1882E0A9
:1016200022C0882361F010923C010E94E92390932C
:101630003A018093390180E20E94231966C08091AB
:101640003C0181110FC08091390190913A010E94B3
:10165000F523883C910530F487E20E949D1787E2CC
:101660000E94BB1880E20E942A194FC0F8018281B3
:101670008111D9CF80913C018111F4CF8091390142
:1016800090913A010E94F523883C910558F780E239
:101690000E942A1988E20E949D1788E20E94BB18C6
:1016A00034C00E941122282FF801828140910D013F
:1016B00050910E01882379F02A7A91E009F490E0A4
:1016C00090933601911102C069E201C065E3CA013D
:1016D0000E9435230AC080913601811102C069E25F
:1016E00001C065E3CA010E9440230E94DE210DC0B3
:1016F00081E080933B0180933C01C801DF91CF9151
:101700001F910F91FF900C947E0880E0DF91CF91A4
:101710001F910F91FF9008950895E72FF0E096E054
:10172000899FE00DF11D112484E0EE0FFF1F8A95C3
:10173000E1F7E60FF11DEE0FFF1FEA56FE4F859110
:1017400094910895880F991FFC01EA56F24F8591F4
:1017500094910895CF93DF930E948D0B0E949A0D70
:10176000EC01811521E5920708F042C0811560E582
:10177000960708F02CC1883E910500F5803E910542
:1017800008F0D4C1883A910570F4853A910508F0C3
:10179000A2C08130910509F4C9C108F47AC1049747
:1017A00008F0C4C176C18F3B910508F49FC0803C0E
:1017B000910508F46EC1805C9109F9C0C11580E300
:1017C000D80780F4C11590E2D90708F0EEC0C03FF9
:1017D000D10508F45EC1CF3FD10511F008F0A6C1D4
:1017E000D065A4C1C11520E4D20708F0EDC0E2C065
:1017F000811569E5960760F5C11588E5D80708F0F9
:1018000032C1C11594E5D90778F4C11523E5D20793
:1018100008F00EC1C11562E5D60708F0F3C0DC2F51
:10182000CC27C16FD06A82C1C11585E5D80708F4FD
:1018300015C1C11596E5D90708F02BC18C2F0E9460
:10184000170E8F71C82FD0E0DC2FCC27D0626EC16D
:101850008D3B2CE5920709F413C1D0F4CB3B8CE50A
:10186000D80709F407C108F008C1C1152AE5D20755
:1018700008F00FC12C2F2F70206E30E0306A84E00A
:10188000D695C7958A95E1F7CF70C9019C2BF0C01A
:10189000803C9C4509F4FAC0C13C8CE5D80760F453
:1018A000CE3B9CE5D90709F4EEC0CF3BDC4509F0FF
:1018B000F0C0C0E0D2ED3AC1CE0190568115904201
:1018C00008F0E7C08D2F8F710E94170EDD27D062C0
:1018D0008F71D82B2BC1853A910509F4DDC0863A6A
:1018E000910509F0DCC0C2E8D0E420C1883A910536
:1018F00009F4D8C0893A910509F4D7C08A3A91050C
:1019000009F4D6C08B3A910509F4D5C08C3A9105FB
:1019100009F4D4C08B3B910509F4D3C08C3B9105ED
:1019200009F4D2C08D3A910509F4D1C0803B9105EC
:1019300009F4D0C08E3A910509F4CFC08F3A9105D1
:1019400009F4CEC0813B910509F4CDC0823B9105DD
:1019500009F4CCC0833B910509F4CBC0843B9105CD
:1019600009F4CAC0853B910509F4C9C0863B9105BD
:1019700009F4C8C0873B910509F4C7C0883B9105AD
:1019800009F4C6C0893B910509F4C5C08D3B91059A
:1019900009F4C4C08E3B910509F4C3C08A3B91058C
:1019A00009F4C2C0C0E0D4E4C1C0CE019F700E945F
:1019B000A20B5EC0CE019927D3FF03C0EC01D86C07
:1019C000B5C0EC01D06CB2C0DF70D06AAFC083701C
:1019D00021E030E002C0220F331F8A95E2F73C6815
:1019E000CE0154E0969587955A95E1F78370382B90
:1019F000CF70C695C69580E2C89FE0011124C22B26
:101A0000D32B94C04C2F4695469590E2499FA00158
:101A10001124C370DD2721E030E0C90102C0880F26
:101A2000991FCA95E2F7EC01C42BD52BDC687EC068
:101A30004C2F4695469580E2489FA0011124C37023
:101A4000DD2721E030E0C90102C0880F991FCA9547
:101A5000E2F7EC01C42BD52BDA6868C0DC2FCC2769
:101A6000C46FD06A63C0DC2FCC27C06FD06A5EC061
:101A7000EC015CC0C0E0D4ED59C0C0E0D5ED56C06B
:101A8000C0E0D1ED53C0C0E0D0ED50C0C0E0D3ED18
:101A90004DC0C0E0D0E04AC0C1E8D0E447C0C3E8D0
:101AA000D0E444C0C2EED4E441C0C9EED4E43EC0A8
:101AB000CAEED4E43BC0C5EBD4E438C0C6EBD4E4F2
:101AC00035C0C3EBD4E432C0C4EBD4E42FC0C7EBC1
:101AD000D4E42CC0CCECD4E429C0CDECD4E426C0B2
:101AE000C3E8D5E423C0CAE8D5E420C0C2E9D5E400
:101AF0001DC0C4E9D5E41AC0C1E2D6E417C0C3E2F0
:101B0000D6E414C0C4E2D6E411C0C5E2D6E40EC0E7
:101B1000C6E2D6E40BC0C7E2D6E408C0CFE6D4E400
:101B200005C0C0E7D4E402C0CAE2D6E4CE01DF912A
:101B3000CF9108958238910549F1B0F48133910530
:101B400009F458C048F48932910509F44EC08A322C
:101B5000910509F454C008958533910509F440C0F6
:101B60008933910599F00895833E910529F138F460
:101B7000803E910591F0823E9105A1F00895863E48
:101B80009105F9F0873E910531F108952091950274
:101B900020FD3AC021FD38C008958091950280FD56
:101BA00035C032C08091950282FF32C0809195028B
:101BB00084FD30C083EE39C08091950282FD28C03B
:101BC000F5CF8091950283FF27C08091950284FD17
:101BD00021C087EE2AC08091950283FD1DC0F5CFFC
:101BE0008091950285FD1AC01BC08091950285FDEC
:101BF00017C014C08091950286FD14C015C0809155
:101C0000950286FD11C00EC080EE0FC089E30DC0A5
:101C100082EE0BC080E009C086EE07C089E205C0F5
:101C200085E303C08AE201C081E390E008959091CA
:101C3000950292FF0DC0282F2871283019F4877F54
:101C4000846006C0282F2471243011F48B7F8860B3
:101C500093FF0DC0282F2871283119F4877E8461E5
:101C600006C0282F2471243111F48B7E886194FDE5
:101C7000877E08950C9473080C947408E0E3F1E0F7
:101C800041E050E026E02E0F9191A92FA295AF7070
:101C9000B0E091963C9191979F70BA0102C0660F97
:101CA000771F9A95E2F7CB018095832391968C93C9
:101CB0002E13EACFA0E2B1E041E050E020E12A0F8C
:101CC0008D91E82FE295EF70F0E031A18F70BA01AD
:101CD00002C0660F771F8A95E2F7CB01962F909589
:101CE000932391A392A1892B82A32A13E9CFE9E43C
:101CF000F1E0ADE3B1E0119211921D921D9271E0FD
:101D0000E535F707C1F786E00E942A0F0C94F0082A
:101D10004F925F927F928F929F92AF92BF92CF929B
:101D2000DF92EF92FF920F931F93CF93DF9320E305
:101D3000422E21E0522EA9E4B1E020E001E010E0C3
:101D40005D018D909C90119711961C921E92E2015C
:101D500089912E01E82FE295EF70F0E031A18F70AC
:101D6000A80102C0440F551F8A95E2F7CA01342B1F
:101D700031A342A1382F3095432342A350EA5A950C
:101D8000F1F790E2C92E91E0D92E40E050E0E60153
:101D900079906E01672D62956F7070E0EB01E8A09D
:101DA0006D917C911197F12CD72DDF7002C0F594C5
:101DB000E794DA95E2F7E0FC08C07801042E02C04F
:101DC000EE0CFF1C0A94E2F702C0E12CF12C6E2904
:101DD0007F2911967C936E934F5F5F4F4031510581
:101DE000B1F691A1392331A392A1892B82A3129636
:101DF00081E0F501408151818416950609F480E067
:101E0000282BF1E0A535BF0709F09ACF46E06DE336
:101E100071E089E491E00E942B0F0E94820881E02A
:101E2000DF91CF911F910F91FF90EF90DF90CF90B6
:101E3000BF90AF909F908F907F905F904F9008954C
:101E4000E82FF0E0EE0FFF1FE35CFE4F80819181F1
:101E5000089508950895FF920F931F93CF93DF93F2
:101E6000F82E092F162FD72FC42F222349F081E0F7
:101E7000809357010E94E923909356018093550166
:101E8000809157018823B9F08091550190915601B6
:101E90000E94F523069778F0EF2DF02FA12FBD2F8C
:101EA00080E08C1731F0219131912D933D938F5F1C
:101EB000F8CF10925701DF91CF911F910F91FF90B2
:101EC0000895EF92FF920F931F93CF93DF93E90151
:101ED000493C08F048EC662309F44BC0242F30E05D
:101EE000EFEFF0E0E61BF109B901E69F9001E79FF3
:101EF000300DF69F300D1124232F8B01031B110988
:101F00005CE3E52EF12CB7010E944233FB01BC01DA
:101F1000069FC001079F900D169F900D1124B701D9
:101F20000E944233E230F105B1F040F4309779F08D
:101F3000319711F5832F242F461B21C0E430F10582
:101F4000A1F068F03597C1F4842F861B18C0832F49
:101F5000262F230F14C0862F830FE42F03C0E42FF6
:101F6000E61B842F432F2E2F0AC0842F462F430FAA
:101F700006C0842F242F03C080E020E040E0E42F3F
:101F8000F0E0EE54F24F4491E22FF0E0EE54F24FC5
:101F90009491E82FF0E0EE54F24FE4914983988356
:101FA000EA83DF91CF911F910F91FF90EF900895F9
:101FB00088E090E00C94C133CF92DF92EF92FF92D1
:101FC0006B017C010E94D80F6C157D058E059F0565
:101FD00051F0B701A60188E090E0FF90EF90DF900C
:101FE000CF900C94DF33FF90EF90DF90CF90089567
:101FF000EAE5F2E083E0808310925B028FEF828358
:1020000088EC8383148260817181828193810C9436
:10201000DC0F80915A0280FF03C086958F7308956C
:1020200080E0089580915E0290E0019684309105F1
:1020300014F083E090E080935E0260915A02709108
:102040005B0280915C0290915D020C94DC0F8091A8
:102050005E0290E0019797FF02C080E090E084303C
:10206000910514F083E090E080935E0260915A0243
:1020700070915B0280915C0290915D020C94DC0F88
:1020800080915A0280FF06C060E170E08FE592E027
:102090000C942B1680E090E0FC01E15AFD4F118278
:1020A00010821282039680339105B1F7EDCF9091A3
:1020B0005A0290FF0FC020E030E0F901E15AFD4FD5
:1020C0008183608342832D5F3F4F20333105A9F721
:1020D0000C9440100895CF93DF9300D01F92CDB79A
:1020E000DEB720915A0220FF0AC09E012F5F3F4FAA
:1020F0000E94610F4B8169818A810E9457100F9065
:102100000F900F90DF91CF9108955F926F927F9221
:102110008F929F92AF92BF92CF92DF92EF92FF92F7
:102120000F931F93CF93DF9300D01F92CDB7DEB7ED
:102130008C01E62EF42E522E80915A0280FF8BC025
:10214000982F9E77923061F49E012F5F3F4FC80118
:102150000E94610F4B8169818A810E9457105BC088
:10216000E82FE695EF739EE39E0F9F73943018F46B
:10217000F0905D0250C09AE39E0F9F73993068F40F
:10218000881F8827881F90915B02292F220F022F1A
:10219000082B97FB112710F93EC087E28E0F8F7333
:1021A0008A30C8F5F0E07997E0FD02C021E001C077
:1021B0002FEFEE7FE855F24F85919491AC0184E0CA
:1021C000569547958A95E1F724034001259F900C89
:1021D0001124580188E9A81A8EEFB80A9FE5C92E84
:1021E00092E0D92E28E6622E77247394C501B301BC
:1021F0000E94423396014F2D6E2D0E94610FA80C54
:10220000B91C83E0C80ED11C8FE8C81682E0D8063E
:1022100069F70E94401080915A0200FB87F9809371
:102220005A02902F969580915B028078892B10FB43
:1022300087F980935B02E0925C02F0925D02552088
:1022400051F060915A0270915B0280915C02909112
:102250005D020E94DC0F0F900F900F90DF91CF91E5
:102260001F910F91FF90EF90DF90CF90BF90AF90B4
:102270009F908F907F906F905F900895282FEAE550
:10228000F2E09081991F9927991F30915B02832F6B
:10229000880F482F492B37FB552750F9CA0108965C
:1022A00068E671E00E945633438162810C94851088
:1022B00081E00C943E11282F90915A02991F992782
:1022C000991F30915B02832F880F482F492B37FBD2
:1022D000552750F9CA01483051051CF4805A9E4FC9
:1022E00001C0089768E671E00E94563340915D0294
:1022F00060915C020C94851081E00C945B116091FC
:102300005C02262F30E0283F310514F4685F01C0DD
:102310006FEF30915A02331F3327331F90915B02C6
:10232000592F550F97FB992790F9282F40915D025F
:10233000852F832B0C94851081E00C947F11609184
:102340005C02262F30E02830310514F0685001C0BF
:1023500060E030915A02331F3327331F90915B02A4
:10236000592F550F97FB992790F9282F40915D021F
:10237000852F832B0C94851081E00C949F11409144
:102380005D02242F30E0213C310514F4485F01C088
:1023900048EC30915A02331F3327331F90915B0270
:1023A000592F550F97FB992790F9282F60915C02C0
:1023B000852F832B0C94851081E00C94BF114091E4
:1023C0005D02242F30E02830310514F0485001C060
:1023D00040E030915A02331F3327331F90915B0244
:1023E000592F550F97FB992790F9282F60915C0280
:1023F000852F832B0C94851081E00C94DF1120E055
:102400000C948510CF9390915A0290FF40C0917820
:10241000811102C0926007C0853210F0986403C039
:102420008F73880F982B90935A02662351F0609116
:102430005A0270915B0280915C0290915D020E9451
:10244000DC0FC0915A026C2F66956F7370E04BE001
:1024500050E082E091E00E94AC33892B19F0109299
:10246000750103C081E080937501CC1FCC27CC1F80
:1024700090915B02892F880F97FB992790F94091E3
:102480005D0260915C028C2BCF910C94FF11CF9177
:102490000895682F90915A0296959F7381E0890F55
:1024A000853208F081E00C94021281E00C9449120C
:1024B000682F90915A0296959F738FEF890F09F4B8
:1024C00084E20C94021281E00C94581261E00C94A6
:1024D0000212EAE5F2E080818160808386958F7345
:1024E0000C94661260E00C94021280912B028160C1
:1024F00080932B020E944D22811104C00E94CE22A3
:102500000E94F80F0E94D80F60935A0270935B02EA
:1025100080935C0290935D026E7761F40E94F80FE5
:102520000E94D80F60935A0270935B0280935C0202
:1025300090935D0281E08093750180915A0280FF43
:1025400004C086958F730C9472120895EAE5F2E048
:1025500080818E7F808360817181828193810E94DE
:10256000DC0F109275012FEF80E792E02150804040
:102570009040E1F700C000000C94401080915A0296
:1025800080FD0C94A6120C946912CF93C82F8091F1
:102590007301909174010E94F523EC2FF0E0EC554B
:1025A000F24FE491F0E08E179F0708F443C00E94B9
:1025B000E92390937401809373016091720170E03C
:1025C00080E090E00E94333120E030E04FE753E4B8
:1025D0000E9456302BED3FE049E450E40E945C320B
:1025E0000E94C9320E94D0302BE43AE34EE25FE30E
:1025F0000E94E92F20EF3BEF48ED52E40E945C324D
:102600000E940231462F80915A02881F8827881F16
:1026100090915B02292F220F97FB992790F96091E7
:102620005C02822B0E946B108091720190E00196F7
:1026300080937201CF910895CF93C82F809170013C
:10264000909171010E94F523EC2FF0E0EF55F24FCD
:10265000E491F0E08E179F07E8F00E94E923909341
:1026600071018093700140915D0260915C028091E4
:102670006E0190916F010E946B1080916E0190919C
:102680006F01019668E671E00E94423390936F01FA
:1026900080936E01CF910895CF92DF92FF920F93B6
:1026A0001F93CF93DF93F82E80916C0190916D0171
:1026B0000E94F523EF2DE695F0E0E256F24FE4910B
:1026C000F0E08E179F07F0F10E94E92390936D01CF
:1026D00080936C010FE512E0C0E0D0E088E6C82EE0
:1026E000DD24D39480916A0190916B018C0F9D1F22
:1026F000B6010E944233980140915D0260915C02F4
:102700000E94610F66960D5F1F4FC03681E0D807AB
:1027100049F70E94401020916A0130916B01F0FE50
:102720000BC0C901019668E671E00E9442339093A4
:102730006B0180936A0106C02150310930936B010F
:1027400020936A01DF91CF911F910F91FF90DF904D
:10275000CF900895AF92BF92CF92DF92EF92FF9207
:102760000F931F93CF93DF93C82F80FF02C01FEFFB
:1027700001C011E080916801909169010E94F523E8
:10278000C695EC2FF0E0E556F24FE491F0E08E179D
:102790009F0708F465C00E94E92390936901809324
:1027A00068012FE5C22E22E0D22E31E6E32E32E080
:1027B000F32EC0E0D0E0F70131971082F6011082CD
:1027C000F701108294E0A92EB12C00E080916701FE
:1027D000800F87FD805F082E000C990BC817D90762
:1027E000E9F480915D028A9DA0018B9D500D11241A
:1027F000559547955595479580915A02881F88278A
:10280000881F90915B02592F550F97FB992790F9DC
:10281000960160915C02852B0E94610F010FF1E02F
:10282000AF1AB10899F6219683E0C80ED11CE3E0F7
:10283000EE0EF11CC031D10509F0BDCF0E94401051
:1028400080916701113031F4811102C08FE006C020
:10285000815004C090E001968F70992780936701A2
:10286000DF91CF911F910F91FF90EF90DF90CF906C
:10287000BF90AF900895EF92FF920F931F93CF9365
:10288000DF93C82F80916501909166010E94F52326
:10289000EC2FF0E0E856F24FE491F0E08E179F073E
:1028A00008F464C00E94E923909366018093650157
:1028B00080E090E0FC01E15AFD4F1182108212820B
:1028C000039680339105B1F78FE5E82E82E0F82E6C
:1028D00001E612E0C0E0D0E080916401082E000C17
:1028E000990BC817D907ECF080910101082E000C54
:1028F000990B8C179D07ACF080915A02881F88278E
:10290000881F90915B02592F550F97FB992790F9DB
:10291000970140915D0260915C02852B0E94610FDE
:1029200007C0F80131971082F7011082F801108278
:102930002196F3E0EF0EF11C0D5F1F4FC031D10562
:1029400059F60E9440108091000190916401980F07
:102950009093640120910101280F20930101121628
:1029600014F49F301CF0819580930001DF91CF918A
:102970001F910F91FF90EF900895EF92FF920F93A8
:102980001F93CF93DF9380916201909163010E9426
:10299000F523883E9340D0F10E94E9239093630190
:1029A00080936201C0916001D09161012196C17054
:1029B000DD27D0936101C09360018FE5E82E82E0AE
:1029C000F82E10E008E7812F8695FE01E80FF11D33
:1029D000CF0181709927970140915D0260915C025F
:1029E000FC010E9FC0010F9F900D11240E94610FEA
:1029F0001F5FF3E0EF0EF11C103129F7DF91CF914B
:102A00001F910F91FF90EF900C944010DF91CF91A8
:102A10001F910F91FF90EF900895CF93DF9300D017
:102A20001F92CDB7DEB780915E0190915F010E9449
:102A3000F523E6E9FDE02591349182179307C0F173
:102A400080915D0181110CC09E012F5F3F4F48ECCA
:102A50006FEF80E090E00E94610F8A8180935D01BA
:102A60000E94E92390935F0180935E0180915C0155
:102A7000813051F028F0823061F440915D010AC04C
:102A800080915D0140E007C060915D0140E080E021
:102A900003C040E080E060E00E94571080915C013C
:102AA00090E0019663E070E00E94563380935C01F1
:102AB0000F900F900F90DF91CF9108950F931F9378
:102AC000CF93DF9380915A0190915B010E94F5238F
:102AD000843F914008F448C00E94E92390935B0131
:102AE00080935A01CFE5D2E000E010E02091580138
:102AF0003091590180915A0290915B020830110582
:102B00001CF4232B79F002C0232B61F4881F882743
:102B1000881F592F550F97FB992790F99E014091D7
:102B20005D020AC0881F8827881F592F550F97FB01
:102B3000992790F99E0140E060915C02852B0E94EC
:102B4000610F0F5F1F4F23960031110579F60E9428
:102B500040108091580190915901019681709927F8
:102B60009093590180935801DF91CF911F910F915C
:102B70000895809175018823D9F190915A02892F87
:102B800086958F732EE3280F2F73243018F482500C
:102B90000C94C5122AE3280F2F73233018F48650A3
:102BA0000C941C1327E3280F2F73263018F4895038
:102BB0000C944C1321E3280F2F73263018F48F50F8
:102BC0000C94AA132BE2280F2F73233018F485518D
:102BD0000C943B14892F8E77803311F40C94BD1420
:102BE000863411F40C940D15883411F40C945E1590
:102BF00008952EB1342F309523233EB1432B3FB798
:102C0000F894FC01680F791FE617F70789F08191A6
:102C100098E04EB9000000C087FF2EB9880F000071
:102C200000C000C000C02EB900C09A9591F7ECCF4B
:102C30003FBF08952DB1242B2DB99B01220F331FC7
:102C4000620F731F0E94F91587EC90E00197F1F76E
:102C500000C00000089544E00C941A1690937B0184
:102C600080937A010895E0917A01F0917B01309789
:102C700021F00190F081E02D099480E00895E09129
:102C80007A01F0917B01309799F020911F01222366
:102C900059F02091950227FF07C0DC012C91119675
:102CA0002C93119725E02C930280F381E02D099459
:102CB0000895E0917A01F0917B01309739F022E09C
:102CC000DC012C930480F581E02D09940895209176
:102CD0007801309179018217930771F0909379010F
:102CE00080937801E0917A01F0917B01309721F097
:102CF0000680F781E02D09940895209176013091A6
:102D000077018217930771F0909377018093760192
:102D1000E0917A01F0917B01309721F00084F185F8
:102D2000E02D0994089585B7806885BF85B78068D0
:102D300085BF089508950E9493160C949A1681E019
:102D400008950E94E0230E943E0E0E94B5240E9436
:102D5000FF270C9475124F925F927F928F929F92F1
:102D6000AF92BF92CF92DF92EF92FF920F931F9399
:102D7000CF93DF93CDB7DEB72A970FB6F894DEBFB7
:102D80000FBECDBF0E94880E0E949F16811111C0F8
:102D90008FEF89838A831B820E94E9238160782FC9
:102DA0009D838C8349815A816B818D810E94691733
:102DB00057C09DE7C92E91E0D92E00E010E0AA246B
:102DC000A394B12C702E802F0E94200F4C01F6018D
:102DD000419051906F01482659264114510431F415
:102DE0000F5F1F4F0630110569F7D2CF80912B027C
:102DF00081FD0E94290F20E030E07501022E02C003
:102E0000EE0CFF1C0A94E2F7C70184219521892B5F
:102E100009F12E837F828E209F2091E0892809F47A
:102E200090E098870E94E9238160782F9A878987AC
:102E30004E815F8168858A850E946917000F111F86
:102E4000F801E358FE4F80819181E826F926F1824E
:102E5000E08206C02F5F3F4F2031310571F6C0CFB1
:102E60000E94582710917C010E9433161817D9F040
:102E70000E94331680937C012A960FB6F894DEBF29
:102E80000FBECDBFDF91CF911F910F91FF90EF90BB
:102E9000DF90CF90BF90AF909F908F907F905F908A
:102EA0004F900C94FC082A960FB6F894DEBF0FBE24
:102EB000CDBFDF91CF911F910F91FF90EF90DF90E9
:102EC000CF90BF90AF909F908F907F905F904F90EA
:102ED0000895CF93DF93CDB7DEB72B970FB6F89455
:102EE000DEBF0FBECDBF4F83588769877A878B8738
:102EF000DE01119686E0FD0111928A95E9F785E0E1
:102F0000FE01379601900D928A95E1F749815A8129
:102F10006B817C818D819E810E94B51E2B960FB6A0
:102F2000F894DEBF0FBECDBFDF91CF910895FC01B5
:102F3000808191810E947F210895882309F41AC11C
:102F40008238C1F40E94331681FD14C169E3809177
:102F50000D0190910E010E9435230E94DE212FEF7A
:102F600081EE94E0215080409040E1F700C00000E5
:102F700069E319C08338F9F40E94331680FDFAC062
:102F800063E580910D0190910E010E9435230E940E
:102F9000DE212FEF81EE94E0215080409040E1F758
:102FA00000C0000063E580910D0190910E010E9428
:102FB00040230C94DE218438C1F40E94331682FD34
:102FC000D9C067E480910D0190910E010E943523D4
:102FD0000E94DE212FEF81EE94E02150804090404E
:102FE000E1F700C0000067E4DECF9CEF980F913A54
:102FF00040F4682F80910D0190910E010E943523BD
:10300000D8CF90E2980F983050F4877091E001C0CB
:10301000990F8A95EAF7892F0E941422CACF9BE55F
:10302000980F933070F4853A29F0863A31F083E8AE
:1030300090E005C081E890E002C082E890E00C9446
:10304000671698E5980F973108F08EC0883A09F412
:1030500045C0893A09F445C08A3A09F445C08B3A1B
:1030600009F445C08C3A09F445C08B3B09F445C0CE
:103070008C3B09F445C08D3A09F445C0803B09F406
:1030800045C08E3A09F445C08F3A09F445C0813BEA
:1030900009F445C0823B09F445C0833B09F445C0AF
:1030A000843B09F445C0853B09F445C0863B09F4DF
:1030B00045C0873B09F445C0883B09F445C0893BBE
:1030C00009F445C08D3B09F445C08E3B09F445C069
:1030D0008A3B09F445C080E090E044C082EE90E075
:1030E00041C089EE90E03EC08AEE90E03BC085EBA7
:1030F00090E038C086EB90E035C083EB90E032C0C2
:1031000084EB90E02FC087EB90E02CC08CEC90E03B
:1031100029C08DEC90E026C083E891E023C08AE8C6
:1031200091E020C082E991E01DC084E991E01AC0DD
:1031300081E292E017C083E292E014C084E292E060
:1031400011C085E292E00EC086E292E00BC087E2F9
:1031500092E008C08FE690E005C080E790E002C0F2
:103160008AE292E00C947D16803F20F00E94602657
:103170000C944D270895882309F464C0823879F4AB
:103180000E94331681FF5EC069E380910D0190912A
:103190000E010E9435230E94DE2169E310C08338AE
:1031A000B1F40E94331680FF4DC063E580910D019C
:1031B00090910E010E9435230E94DE2163E58091EB
:1031C0000D0190910E010E9440230C94DE21843861
:1031D00079F40E94331682FF35C067E480910D01B7
:1031E00090910E010E9435230E94DE2167E4E7CF13
:1031F0009CEF980F913A10F4682FE1CF90E2980F6E
:10320000983050F4877091E001C0990F8A95EAF7E1
:10321000892F0E941A22D9CF9BE5980F933020F472
:1032200080E090E00C94671698E5980F973120F4B1
:1032300080E090E00C947D16803F20F00E94C8262C
:103240000C944D270895882321F00E9414220C9499
:10325000DE210895882321F00E941A220C94DE2199
:1032600008954F925F926F927F92BF92CF92DF92BA
:10327000EF92FF920F931F93CF93DF937C01D62F92
:10328000C72FFC01058102950F70128111110E9458
:1032900031220E94D721882379F0112369F080E23E
:1032A0008D0F883048F082E00E94C0210E94D72113
:1032B00091E0B82EB92601C0B12CCC2EC2948FE07B
:1032C000C822D12CF601E859FF4F0C948C338C2F77
:1032D000807FCF70882311F0C295C07F112399F0B1
:1032E000CC2309F4D0C180E28D0F883010F0D111C9
:1032F00004C08C2F0E94142203C08C2F0E94242211
:103300000E94DE21C0C18D2F0E94BB18CC2309F47E
:1033100003C280E28D0F883010F0D11104C08C2FD1
:103320000E941A2203C08C2F0E942A220E94DE21B2
:10333000F3C18C2F807FCF70803211F0C295C07F97
:10334000DD2319F0D130C9F022C0112371F0002320
:1033500041F0013031F40E944A228C2B0E94442219
:10336000DBC10E944A228C2B46C1002319F0013098
:1033700009F4D2C10E94472218C0112321F006305F
:1033800008F0CAC10EC0053008F0C6C10EC0112336
:1033900051F0002331F0F701858180FF74C18F70F7
:1033A00085838C2F28C101117FC18C2F2AC18C2FBE
:1033B00086958695837090E0009719F0019761F0EB
:1033C000ABC1112321F08D2F9C2F937002C080E0A0
:1033D00090E00E946716B0C1112321F08D2F9C2F21
:1033E000937002C080E090E00E947D16A5C1112379
:1033F000F9F0D53F51F0D63F71F0D43FA9F4809158
:103400008F029091900281600BC080918F02909109
:103410009002826005C080918F029091900284603A
:103420009093900280938F028D2F0E9460261EC081
:10343000D53F51F0D63F71F0D43FA9F480918F026F
:10344000909190028E7F0BC080918F02909190029C
:103450008D7F05C080918F02909190028B7F909319
:10346000900280938F028D2F0E94C8260E944D27C4
:1034700063C18C2F837009F050C0111159C18D2F79
:10348000829586958770880F880F9D2F9F70492E93
:10349000512C612C712C082E04C0440C551C661C48
:1034A000771C0A94D2F7D4FF14C00FE010E020E09C
:1034B00030E0B901A80104C0440F551F661F771FF3
:1034C0008A95D2F7CB01BA01609570958095909559
:1034D00003C060E070E0CB01C695C695C370D0E034
:1034E000C230D10561F0C330D10581F0642975295E
:1034F00086299729219771F00E94FA1F19C1642922
:103500007529862997290E940C2012C10E94FA1F52
:10351000C301B2010E94E81F0BC1112319F08C2FC7
:10352000817001C08695882309F402C18D2F829590
:1035300086958770880F880F9D2F9F70492E512C7C
:10354000612C712C082E04C0440C551C661C771C81
:103550000A94D2F7D4FF14C00FE010E020E030E06E
:10356000B901A80104C0440F551F661F771F8A9533
:10357000D2F7CB01BA01609570958095909503C004
:1035800060E070E0CB01C695C695C3704C2F50E04B
:103590004230510569F04330510589F0642975299D
:1035A000862997294130510571F00E94C020C0C082
:1035B00064297529862997290E94D220B9C00E94C2
:1035C000C020C301B2010E94AE20B2C08D2F90E096
:1035D000FC01E05EF109E531F10508F050C0E85862
:1035E000FF4F0C948C33DF708C2F8F71112331F0CF
:1035F0000E9447208D2F0E9423198EC00E946820B0
:103600008D2F0E942A1988C0112341F0053008F03F
:1036100083C08C2F8F710E948D207EC0063008F0F1
:103620007BC0F7CF112339F08C2F8F710E94472078
:1036300073C01123C9F38C2F8F710E9468206CC056
:10364000112329F08C2F8F710E94322065C00E94B7
:103650002D2062C0112349F0CF718C2F0E9447208A
:1036600063E08C2F0E94B72157C081E00E94C021E7
:10367000023008F451C082E00E94C0214DC01123E5
:1036800031F0002389F28D2F0E949D1745C0002341
:1036900091F2D93349F45FEF67EE73E05150604027
:1036A0007040E1F700C000008D2F0E94BB1834C0AD
:1036B0004C2F4F706D2FC7010E945D080E94591F4B
:1036C0003BC0111139C0CF70D0E0C230D10599F0A4
:1036D0003CF4209769F02197F9F40E9439282CC016
:1036E000C430D10571F054F02597B1F480E00AC0E0
:1036F0000E941C2821C00E9478281EC00E947F289A
:103700001BC085E00E94A22817C04C2F4F706D2F60
:10371000C7010E948C0B10C088E0C816D10441F08C
:103720005CF0EAE0CE1AD108F2E0CF16D10420F422
:103730000E9433160E94FC08BB20F1F00E94B321C6
:1037400080FD1AC0F70112820E94AD210E9447201D
:10375000C7010E94CA1B0E94AD21DF91CF911F912A
:103760000F91FF90EF90DF90CF90BF907F906F9080
:103770005F904F900C946820DF91CF911F910F9133
:10378000FF90EF90DF90CF90BF907F906F905F9011
:103790004F9008950F931F93CF93DF93EC0188818F
:1037A00099812B813C81232BB9F09F3F11F48F3FEE
:1037B00099F0CE010E940E09882371F06881798109
:1037C0008A810E948A218C010E94E4200E94E51FC8
:1037D000B801CE010E943119DF91CF911F910F9155
:1037E00008950E9431220E9441220E94DE210E94FF
:1037F000F3270E944D2780E090E00E94671680E04A
:1038000090E00C947D1680910D0190910E010E9424
:103810004B230C94F11B0E9421220C94031CE92FD2
:10382000E295EF70F0E03297EE30F105B0F4E35737
:10383000FF4F0C948C33803F91F018F4803E68F475
:103840000EC0843F51F40BC0803E48F0813F29F404
:1038500006C093FB882780F9089580E0089581E0F1
:1038600008950E947F210E940F1C0895CF93DF933B
:1038700000D000D01F92CDB7DEB70F900F900F9001
:103880000F900F90DF91CF910895CF93DF9300D0E9
:1038900000D000D0CDB7DEB726960FB6F894DEBFC5
:1038A0000FBECDBFDF91CF9108951F93CF93DF93CC
:1038B000C0918A0116E080918B01C81799F0D0E081
:1038C0001C9FF0011D9FF00D1124E457FE4F408115
:1038D000518162817381848195810E94451C21966A
:1038E000C770E9CFDF91CF911F9108954091BC013E
:1038F0005091BD016091BE017091BF018091C001E6
:103900009091C1010C94451C8091C10182958F70EA
:1039100009F054C08091BE01882309F44FC0809102
:103920008A01A0918B016091BC017091BD01409111
:10393000BF015091C001B6E08A1709F43FC090E082
:1039400041155105C1F17F3F11F46F3FA1F1B89FBF
:10395000F001B99FF00D1124E457FE4F218172133D
:103960002AC02081621327C02281211124C0238113
:1039700034812417350710F421503109241B350BED
:10398000283C3105C0F42091C1012F7020612093A3
:10399000C10126E0289FF001299FF00D1124EF5668
:1039A000FE4F80818F70806180838CEB91E00E945C
:1039B000CA1B0C94551C01968770BECF0895CF92F8
:1039C000DF92EF92FF920F931F93CF93DF93CDB7C8
:1039D000DEB762970FB6F894DEBF0FBECDBF8C0185
:1039E00085E0F801DE011D9601900D928A95E1F7C0
:1039F000D8014C9111965C91119712966C91129787
:103A00001396CD90DC9014973091BC017091BD015C
:103A10008091BF019091C001009709F46BC17F3F75
:103A200019F43F3F09F466C1E090BE01EE2009F4AD
:103A3000C0C02091C101C816D90628F0F601E81BC4
:103A4000F90BCF0104C0809590958C0D9D1DFF242E
:103A5000F394883C910578F0F12C207F09F0C6C0E2
:103A60007C2DD98AC88A89890E94361C8CEB91E00A
:103A70000E94CA1BB1C0822F807F09F046C0751317
:103A800014C0341312C0611110C02F702061209334
:103A9000C1010E94761C8CEB91E00E94CA1B8091B0
:103AA000C101D80115968C932EC0CD2819F15F3F26
:103AB00011F44F3FF9F0F62E61111CC080918A017C
:103AC00020918B0136E0821709F45AC090E0389FAC
:103AD000F001399FF00D1124E457FE4F7181571307
:103AE00006C07081471303C07281711103C0019633
:103AF0008770E9CFF62E662309F427C18091C101B2
:103B000081608093C101F12C20C1751308C034136A
:103B100006C0611104C08091C101D801C3C04D87A6
:103B20005E878D859E856A8B0E94311C6A898823F9
:103B3000E1F16623D1F12091C101822F82958F702E
:103B400090E0029774F08091BC019091BD0198873C
:103B50008F831986DB86CA862C87CE0107960E9442
:103B6000CA1B86E0F801ACEBB1E001900D928A959A
:103B7000E1F70E94841C0E94761CFF24F394E5C0A8
:103B80004D875E878D859E850E947F21292F2295F6
:103B90002F7030E0223031050CF0CBC09F7009F05F
:103BA000C5C0805E883008F4D0C0C8010E94CA1B1E
:103BB000E4CFC816D90608F453C0F601E81BF90B88
:103BC000CF01883C910508F450C0F12C7C2DD98A96
:103BD000C88A89890E94361CECEBF1E086E0DF019F
:103BE0001D928A95E9F70E94761CAFC0751314C028
:103BF000341312C0611110C08091C101F801858396
:103C0000C8010E94CA1B86E0ECEBF1E0DF011D92C7
:103C10008A95E9F7FE2C99C04D875E878D859E8534
:103C20006A8B0E94311C6A89882309F4BECF6623FF
:103C300009F4BBCF2091C101822F82958F7090E053
:103C400002970CF48ECF8091BC019091BD019A83B4
:103C500089831B82DD82CC822E83CE0101967FCFA9
:103C6000809590958C0D9D1DACCFF62E662309F4A2
:103C70009CCF75132EC034132CC02091C10120FDA0
:103C80001FC0822F82958F70D9F0D80115962C9382
:103C900015978F3049F08F5F982F9295907F822FE4
:103CA0008F70892B15968C93C8010E94CA1B86E0E1
:103CB000F801ACEBB1E001900D928A95E1F793CF5A
:103CC00086E0F801ACEBB1E001900D928A95E1F746
:103CD0003CC04D875E878D859E850E94311C811179
:103CE00040CF8091C10181608093C101C8010E94D1
:103CF000CA1B2BC0662309F458CF4D875E878D857C
:103D00009E850E94311CF82E882309F44ECF86E050
:103D1000F801ACEBB1E001900D928A95E1F78CEBE4
:103D200091E00E9497170E94841C5DCF811139CFCA
:103D30000CC0243031050CF038CF9F7009F431CF1E
:103D4000F8019581907F09F02CCF8F2D62960FB6E8
:103D5000F894DEBF0FBECDBFDF91CF911F910F91C1
:103D6000FF90EF90DF90CF9008951F93CF93DF9354
:103D7000CDB7DEB72C970FB6F894DEBF0FBECDBF20
:103D80004F83588769877A878B879C87CE010796F0
:103D90000E94DF1C882369F08F8198852A853B85E6
:103DA000232BF1F19F3F09F063C08F3F09F060C002
:103DB00037C086E0FE013796DE01119601900D9224
:103DC0008A95E1F76F817885EA85FB85309741F127
:103DD0007F3F11F46F3F21F120918B0130E0C90149
:103DE00001968770992740918A0150E084179507C2
:103DF00009F447C069837A83FD83EC8396E0929F40
:103E0000D001939FB00D1124A457BE4FFE013196EF
:103E100001900D929A95E1F780938B010E94551CB9
:103E200016E080918A0190918B018917C1F1189F4A
:103E3000C001112484579E4F0E94DF1C882379F112
:103E4000E0918A011E9FF0011124E457FE4F40814A
:103E5000518162817381848195810E94451C80918A
:103E60008A0190E001968770992780938A01D9CFC3
:103E70004F81588569857A858B859C850E94451C74
:103E8000CFCF0E940B1C10928B0110928A01ECEB99
:103E9000F1E086E0DF011D928A95E9F7C1CF2C960B
:103EA0000FB6F894DEBF0FBECDBFDF91CF911F914B
:103EB0000895EF92FF920F931F93CF93DF938C019E
:103EC000892B09F46CC0F12CEE24E394E8012196CF
:103ED000F8018491843740F4843008F051C0813077
:103EE00081F0823019F15BC0853709F444C0A8F134
:103EF0009CE7980F903708F052C08F770E94BB184C
:103F000041C00E5F1F4FFE01C49180E28C0F8830CC
:103F100048F4C7708E2D01C0880FCA95EAF70E9439
:103F2000342214C08C2F0E949D172DC00E5F1F4F8E
:103F3000FE01C49180E28C0F883058F4C7708E2D3A
:103F400001C0880FCA95EAF70E943A220E94DE213A
:103F50001AC08C2F0E94BB1816C00E5F1F4FFE01A7
:103F6000C491CC2381F08FE99FE00197F1F700C065
:103F70000000C150F6CF0E5F1F4FFE01F49003C04A
:103F80000E949D178E018F2D882309F49FCFEFE9A2
:103F9000FFE03197F1F700C000008150F5CFDF91CD
:103FA000CF911F910F91FF90EF90089508950C9479
:103FB000D61F0E94D71F6093020270930302809362
:103FC0000402909305020C94F11B08950C94D91FE0
:103FD0000F931F930091020210910302209104029B
:103FE00030910502602B712B822B932B1F910F9127
:103FF0000C94D91F0F931F9300910202109103029A
:1040000020910402309105026023712382239323BF
:104010001F910F910C94D91F0F931F9300910202CF
:10402000109103022091040230910502602771274C
:10403000822793271F910F910C94D91F08950C94F8
:104040001E200E941F206093FE017093FF01809349
:104050000002909301020C94F11B60E070E0CB0130
:104060000C9421200F931F9341E050E060E070E03A
:104070008A019B0104C0000F111F221F331F8A9564
:10408000D2F7C901B8011F910F910C9421200F9311
:104090001F9341E050E060E070E004C0440F551F02
:1040A000661F771F8A95D2F78091FE019091FF01DC
:1040B000A0910002B09101028A019B01082B192BEB
:1040C0002A2B3B2BC901B8011F910F910C94212081
:1040D0000F931F9341E050E060E070E004C0440F94
:1040E000551F661F771F8A95D2F7409550956095AA
:1040F00070958091FE019091FF01A0910002B09116
:1041000001028A019B01082319232A233B23C901A9
:10411000B8011F910F910C9421200F931F9341E040
:1041200050E060E070E004C0440F551F661F771F29
:104130008A95D2F78091FE019091FF01A091000233
:10414000B09101028A019B01082719272A273B27E2
:10415000C901B8011F910F910C9421200F931F9357
:104160000091FE011091FF012091000230910102A7
:10417000602B712B822B932B1F910F910C9421207C
:104180000F931F930091FE011091FF0120910002F7
:104190003091010260237123822393231F910F9199
:1041A0000C9421200F931F930091FE011091FF01A9
:1041B0002091000230910102602771278227932706
:1041C0001F910F910C942120089520E1929F800D62
:1041D0001124A82FA695A695A695877051E001C039
:1041E000550F8A95EAF785E0A89FD001112420E0B9
:1041F00030E070E0F901EA0FFB1FEE53FE4F408103
:10420000CB01022E02C0969587950A94E2F7817041
:104210009927819584278523842780832F5F3F4FAB
:104220002530310539F7089520E1929F800D112442
:10423000682F669566956695982F977085E0689FBC
:10424000B001112440E050E080E0FA01E60FF71FD2
:10425000EE53FE4F208130E0092E02C0369527959F
:104260000A94E2F721703327042E01C0220F0A942A
:10427000EAF7822B4F5F5F4F4530510531F70895C4
:10428000CF92DF92EF92FF920F931F93CF93DF9322
:104290008C01C0900202D0900302E0900402F090E2
:1042A00005028091FE019091FF01A0910002B09162
:1042B0000102C82AD92AEA2AFB2ACFE1D0E0D70195
:1042C000C6010C2E04C0B695A795979587950A94BC
:1042D000D2F780FF06C0B8018C2F0E94AA0B01976D
:1042E00021F4219760F780E001C08C2FDF91CF91FE
:1042F0001F910F91FF90EF90DF90CF900895CF9393
:10430000DF93EC010E944021BE010E94AA0BDF91C5
:10431000CF9108951F93CF93DF93EB019091890183
:10432000992321F0CB010E947F2113C0882349F0FB
:10433000CB010E944021182F682FCE010E94E5205A
:1043400004C0CB010E941421182FBE01812F0E94AE
:10435000AA0BDF91CF911F91089580910602859558
:10436000859585950895809106028770089598E057
:10437000899F90011124262B209306020C9447203C
:10438000209106028095822380930602982F9770D1
:1043900069F430E0482F082E000C550B2417350720
:1043A00029F08595859585950C94682008959091C0
:1043B0000602977081E009F480E00895E0910D0114
:1043C000F0910E0180912A028083E0910D01F0911D
:1043D0000E01908180912902892B8083E0910D014B
:1043E000F0910E01908180912802892B8083809129
:1043F0000702882381F0E0910D01F0910E01908178
:10440000892B808380910D0190910E010E94D02212
:1044100081111092070280910D0190910E010C9470
:104420003F1680912A02089590912A02892B809349
:104430002A020895809590912A02892380932A0266
:10444000089510922A02089590912902892B809351
:104450002902089580959091290289238093290249
:10446000089510922902089590912802892B809333
:10447000280208958095909128028923809328022C
:1044800008951092280208958093070208951092CB
:104490000702089580910702089580E090E00E944D
:1044A000C73321E08D3E9E4F09F020E0822F089512
:1044B00082E090E00C94B933682F82E090E00C9495
:1044C000CD3383E090E00C94B933682F83E090E023
:1044D0000C94CD3384E090E00C94B933682F84E0E1
:1044E00090E00C94CD3386E090E00C94B933682FC3
:1044F00086E090E00C94CD33AB01BC018FE090E0FE
:104500000C94DF33AB01BC0183E190E00C94DF330A
:1045100060E070E0CB010C94822260E070E0CB019F
:104520000E947C220C9488226DEE7EEF80E090E069
:104530000E94EB3360E082E090E00E94CD3360E0C7
:1045400083E090E00E94CD331092020210920302A9
:10455000109204021092050260E084E090E00E9454
:10456000CD3360E085E090E00E94CD3360E086E0EE
:1045700090E00E94CD336FEF87E090E00E94CD3352
:1045800040E050E0BA0188E090E00E94DF3360E054
:104590008DE090E00E94CD330C948D220C949422F7
:1045A000FC01329680911F01882331F080919502A1
:1045B00087FF02C09EE101C096E080E0915028F0A4
:1045C00021912223D9F38F5FF9CF08959C01FC013B
:1045D00032969FEF80E04191461789F09F3F19F492
:1045E000411101C0982F8F5F8630A9F79F3F39F0A6
:1045F000F901E90FF11D97FDFA9562830895089579
:10460000FC01329608962081261301C01082319653
:10461000E817F907C1F70895262F269526952695C0
:104620002E3168F4FC01E20FF11D677021E030E0EB
:1046300001C0220F6A95EAF78281282B2283089510
:10464000262F2695269526952E3170F4FC01E20F33
:10465000F11D677021E030E001C0220F6A95EAF792
:104660002095828128232283089520911F012223EF
:1046700029F02091950227FD0C940C230C94E6223E
:1046800020911F01222329F02091950227FD0C94EF
:1046900020230C94002320911F01FC013296222339
:1046A00031F08091950287FF02C08EE101C086E063
:1046B000DF011D928A95E9F7089508950C945D2312
:1046C0000E945E2380919C02843061F110922C0242
:1046D00020E488E190E00FB6F894A89580936000FC
:1046E0000FBE2093600080E00E94840880E00E945A
:1046F000FC080E945E2383B7817F846083BF83B7F9
:10470000816083BF7894889583B78E7F83BF0FB60F
:10471000F894A89580916000886180936000109261
:1047200060000FBE089508950895CF930E949323CB
:104730000E94880E0E949423C0E08C2F0E94200FBC
:10474000892B29F4CF5FC630C1F780E001C081E03A
:10475000CF91089508950C94AA230E940B1C0E94E7
:10476000FF270E9433160E94FC080C94AB231F9273
:104770000F920FB60F9211248F939F93AF93BF9315
:1047800080912C02811113C080919102909192022C
:10479000A0919302B09194024196A11DB11D809306
:1047A000910290939202A0939302B0939402BF91CE
:1047B000AF919F918F910F900FBE0F901F90189502
:1047C00082E084BD93E095BD9AEF97BD80936E0023
:1047D00008952FB7F8948091910290919202A09140
:1047E0009302B09194022FBF0895CF92DF92EF927F
:1047F000FF920F931F932FB7F8944091910250911D
:10480000920260919302709194022FBF6A017B0122
:10481000EE24FF248C0120E030E0C016D106E20631
:10482000F30610F4415051099A01281B390BC901B4
:104830001F910F91FF90EF90DF90CF9008957894A3
:104840001F920F920FB60F9211248F939F93AF93E5
:10485000BF938091910290919202A0919302B091A6
:1048600094020196A11DB11D809391029093920232
:10487000A0939302B0939402BF91AF919F918F91B7
:104880000F900FBE0F901F90189581E08093E0006D
:1048900080E28093D8001092C9008FE19EE40197D6
:1048A000F1F700C0000087E090EBDC018093A502E7
:1048B0009093A602A093A702B093A8029CE088E17F
:1048C0000FB6F894A895809360000FBE9093600097
:1048D000FFCFAF92BF92CF92DF92EF92FF920F93F2
:1048E0001F93CF93C0E0CC24C394D12CE82EF12C9D
:1048F0008C2F0E94200F5C0100E010E09601002E3A
:1049000002C0220F331F0A94E2F72A213B21232BF6
:1049100031F40F5F1F4F0031110581F70AC0602F7E
:104920007C2F80E00E948D0BE816F90691F781E05C
:1049300004C0CF5FC630E1F680E0CF911F910F91A8
:10494000FF90EF90DF90CF90BF90AF900895CF93FE
:10495000C82F8CE20E946924882321F08C2FCF91EC
:104960000C94692480E0CF910895CF930E944D224A
:10497000811102C00E94CE22C5E6C15049F00E94BA
:10498000880E8FE39CE90197F1F700C00000F5CF96
:1049900089E20E94A72481110FC18AE20E94A72404
:1049A00081110E94CE2285E00E94A72481110E94DD
:1049B00045240E94582280932B0287E00E94A7245E
:1049C0008823A9F18BE10E94A724882351F08091CC
:1049D0002B0281FB222720F991E0922790FB81F99D
:1049E0000EC08EE00E94A724882361F080912B02E4
:1049F00082FB222720F991E0922790FB82F9809395
:104A00002B0215C080E10E94A72490912B028823DD
:104A100041F093FB222720F981E0822780FB93F964
:104A200004C0892F809580FB90F990932B02809190
:104A30002B020E945C220E946A2290E090939602D0
:104A40008093950280EE0E94A724882341F08091F4
:104A50009502982F909590FB80F98093950289E3B9
:104A60000E94A724882359F08091950281FB222778
:104A700020F991E0922790FB81F98093950282EED4
:104A80000E94A724882359F08091950282FB222757
:104A900020F991E0922790FB82F98093950286EEAF
:104AA0000E94A724882359F08091950283FB222736
:104AB00020F991E0922790FB83F98093950283EE91
:104AC0000E94A724882359F08091950284FB222715
:104AD00020F991E0922790FB84F98093950285E379
:104AE0000E94A724882359F08091950285FB2227F4
:104AF00020F991E0922790FB85F98093950281E35C
:104B00000E94A724882359F08091950286FB2227D2
:104B100020F991E0922790FB86F98093950281E13C
:104B20000E94A724882359F08091950287FB2227B1
:104B300020F991E0922790FB87F98093950280916C
:104B400095020E946E2287E20E94A724C82F8EE160
:104B50000E94A7248111C2608FE10E94A7248111C5
:104B6000C46080E20E94A7248111C86081E20E9493
:104B7000A7248111C06182E20E94A7248111C06232
:104B800083E20E94A7248111C06484E20E94A724CA
:104B9000882311F0C06802C0CC2329F08C2F0E941A
:104BA00065226C2F03C00E946122682F70E080E0B4
:104BB00090E0CF910C94E61FCF91089580912F0241
:104BC00080FF0BC06091120185E0689FB001112445
:104BD00075956795759567952BC081FF09C06091A4
:104BE000120185E0689FB00111247595679520C07A
:104BF00082FF07C06091120185E0689FB001112417
:104C000017C0909130029923D1F06091110196174D
:104C100088F72091120185E0289F90011124929F2E
:104C2000A001939F500D112470E0CA010E945633D9
:104C30006038710540F46115710539F002C065E016
:104C400070E0862F08958FE7089581E008958091A0
:104C50002F0280FF08C06091100170E07595679584
:104C60007595679521C081FF06C06091100170E0C5
:104C70007595679519C082FF04C06091100170E0BE
:104C800010C0909130029923C1F060910F019617E6
:104C9000A0F780911001899FC001112470E00E944B
:104CA00056336038710528F46115710521F0862F9F
:104CB00008958FE7089581E0089561E070E0F4CFF2
:104CC000803F21F40E94DE25819504C0813F29F4B4
:104CD0000E94DE25809334020895823F21F40E94D1
:104CE000DE25819504C0833F29F40E94DE25809350
:104CF00033020895893F19F40E94272605C08A3F90
:104D000031F40E94272681958093350208958B3FC8
:104D100021F40E942726819504C08C3F29F40E942B
:104D20002726809336020895843F21F48091320231
:104D3000816017C0853F21F480913202826011C0EA
:104D4000863F21F48091320284600BC0873F21F4BA
:104D500080913202886005C0883F31F48091320230
:104D600080618093320208958D3F21F480912F025B
:104D700081600BC08E3F21F480912F02826005C0BC
:104D80008F3F29F480912F02846080932F02089531
:104D9000803F39F48091340287FF6CC01092340256
:104DA00069C0813F29F4809134021816BCF362C0B7
:104DB00090913302823F29F497FF5CC01092330236
:104DC00059C0833F19F41916CCF354C0893F41F4FC
:104DD0008091350218160CF04DC0109235024AC071
:104DE0008A3F29F48091350287FF44C0F6CF8B3F7C
:104DF00039F48091360287FF3DC0109236023AC0E6
:104E00008C3F29F4809136021816BCF333C0843FDE
:104E100021F4809132028E7F17C0853F21F480916A
:104E200032028D7F11C0863F21F4809132028B7F48
:104E30000BC0873F21F480913202877F05C0883FF5
:104E400031F4809132028F7E8093320213C08D3F05
:104E500021F480912F028E7F0BC08E3F21F4809130
:104E60002F028D7F05C08F3F29F480912F028B7F09
:104E700080932F028091330281110EC08091340201
:104E800081110AC080913502811106C080913602DD
:104E9000811102C010923002089581E392E00E94D5
:104EA00059160E94E92390932E0280932D020895B3
:104EB0001F93CF93DF9380912D0290912E020E9439
:104EC000F523AC0190913002992321F02091130138
:104ED00030E006C0209114018AE0289F900111243F
:104EE0004217530708F47BC080913302C09134020B
:104EF000D091350210913602811107C0C1116BC0EB
:104F0000D11169C0111167C06AC09F3F19F09F5F3E
:104F100090933002181624F40E94DE258093330209
:104F20008091330287FF05C00E94DE258195809322
:104F300033021C1624F40E94DE25809334028091F3
:104F4000340287FF05C00E94DE25819580933402DC
:104F5000309133023323E1F0209134022223C1F057
:104F600045EB3403C0011124892F990F990B009749
:104F700009F481E08093330235EB2303C00111244F
:104F8000892F990F990B009709F481E080933402DF
:104F90001D1624F40E942726809335028091350245
:104FA00087FF05C00E942726819580933502111640
:104FB00024F40E942726809336028091360287FFD0
:104FC00005C00E942726819580933602DF91CF91FC
:104FD0001F910C944D279F3F09F099CFA1CFDF91EE
:104FE000CF911F910895E1E3F2E086E0DF011D9289
:104FF0008A95E9F71092300210922F0208950E94CC
:105000004D22811102C00E94CE220E947322809301
:105010009702282F269530E02630310524F0817044
:105020008A60809397028091970280FF02C08695E4
:1050300001C080E00C94840820919702822F86950D
:10504000482F50E04530510544F48F5F982F990F59
:10505000822F8170892B80939702809197028160C3
:10506000809397020E9477228091970286950C94F4
:10507000840880919702982F969591F09158990FF6
:105080008170892B809397028E7F91E009F490E0E4
:105090008091970290FB80F9809397020E9477227B
:1050A0008091970286950C9484088091970280FDE8
:1050B00011C0816080939702813019F483E080935E
:1050C0009702809197020E9477228091970286959D
:1050D0000C94840808958091970280FF08C08E7F09
:1050E000809397020E94772280E00C9484080895B0
:1050F0008091970280FD0C946B280C945528909118
:105100009702892F86958F5F8F779170863028F46C
:10511000880F892B8093970202C090939702809109
:1051200097028E7F91E009F490E08091970290FBC6
:1051300080F9809397020E9477228091970286954A
:105140000C948408863008F085E0880F90919702CF
:105150009170892B809397028E7F91E009F490E003
:105160008091970290FB80F9809397020E947722AA
:105170008091970286950C94840880915702089537
:105180000F931F93CF93DF9300D01F92CDB7DEB75D
:105190008C010E94302B823011F0843021F584E0A4
:1051A00089831B830A8382E08093E9008FEF9091CB
:1051B000E800815095FD06C095ED9A95F1F7000045
:1051C0008111F5CF8091E80085FF0DC040E050E0EF
:1051D00063E070E0CE0101960E944D2B8091E800C3
:1051E0008E778093E8000F900F900F90DF91CF9112
:1051F0001F910F910895CF93DF9300D01F92CDB7E9
:10520000DEB720919C02243031F523E029838058B9
:1052100091099B838A8382E08093E9008FEF9091CC
:10522000E800815095FD06C095ED9A95F1F70000D4
:105230008111F5CF8091E80085FF0DC040E050E07E
:1052400063E070E0CE0101960E944D2B8091E80052
:105250008E778093E8000F900F900F90DF91CF91A1
:105260000895CF93DF93EC010E94302B823011F030
:105270008430F9F482E08093E9009FEF8091E800A8
:10528000915085FD06C085ED8A95F1F700009111DA
:10529000F5CF8091E80085FF0CC040E050E066E06B
:1052A00070E0CE010E944D2B8091E8008E778093B4
:1052B000E800DF91CF910895CF93DF93EC010E9436
:1052C000302B823011F08430D9F580911F01882372
:1052D00039F08091950287FF03C060E282E002C04E
:1052E00068E081E08093E9008FEF9091E8008150C1
:1052F00095FD06C095ED9A95F1F700008111F5CF67
:105300008091E80085FF1CC080911F01811105C0BC
:1053100040E050E068E070E003C070E040E050E042
:10532000CE010E944D2B8091E8008E778093E8009B
:1053300080E2FE01A7E3B2E001900D928A95E1F7C9
:10534000DF91CF91089580919B02811109C00E9445
:10535000E22C0E943F2D8091E20084608093E20065
:10536000089510929B020895089508950C94AD231A
:1053700042E061EC81E00E945C2C42E261EC82E060
:105380000C945C2C80919E02833009F460C030F450
:10539000813071F0823009F499C008958A3009F49F
:1053A00085C08B3009F46BC0893009F0A7C020C0DC
:1053B00080919D02813A09F0A1C08091E800877F29
:1053C0008093E8008091A1029091A202892B21F4A0
:1053D00060E287E392E003C060E080E090E070E08C
:1053E0000E94982B8091E8008B778093E8000895C5
:1053F00080919D02813209F081C08091A10290913B
:10540000A202029708F07AC08091E800877F80931B
:10541000E8008091E80082FD05C080919C02811126
:10542000F8CF6CC02091F3008091F20090E0922BB5
:10543000029729F48091F1008B7F813021F48091D3
:10544000F100809357028091E8008B7753C08091E0
:105450009D02813A09F052C08091A1029091A2026E
:10546000892B09F04BC08091E800877F8093E8008A
:105470008091E80080FFFCCF80911F0136C08091B1
:105480009D028132D9F58091A1029091A202892BCF
:10549000A9F58091E800877F8093E8000E94912C15
:1054A00080919F0280931F010C940B1C80919D02A0
:1054B000813221F58091E800877F8093E8000E9487
:1054C000912C8091A00280935802089580919D02B2
:1054D000813AA1F48091E800877F8093E800809171
:1054E000E80080FFFCCF809158028093F10080910A
:1054F000E8008E778093E8000C94912C089584B78F
:10550000877F84BF0FB6F894A8958091600088616A
:1055100080936000109260000FBE80E8809361006D
:10552000109261000E949B160E94E22C0E943F2D67
:105530008091E20084608093E20078940E94CE2FF4
:105540000E94A11685E191E00E942E1680919C0296
:10555000853069F40E94602380919A028823B1F318
:105560000E949523882391F30E94372BEFCF0E944E
:10557000AB160E94B915EACF0C94BE2A292F332707
:1055800023303105C9F064F42130310581F0223037
:10559000310509F04CC08BE390E02AED3EE04BC0B2
:1055A0002132310521F12232310589F140C082E1F9
:1055B00090E025E13FE03FC099278130910571F0EF
:1055C0002CF4892BA1F5E6EDFEE00DC082309105AB
:1055D00041F0039761F5E2EBFEE005C0E6ECFEE08A
:1055E00002C0E8EBFEE0849190E09F0124C06115C9
:1055F000710541F061307105D1F489E090E025E05A
:105600003FE019C089E090E02CEE3EE014C0611547
:10561000710541F06130710551F480EC90E027E2B2
:105620003FE009C080E490E027EE3FE004C080E066
:1056300090E020E030E0FA0131832083089508955E
:10564000CF93C82F0E941F2BC0935902CF9108956A
:1056500080919C02843011F081E0089582E00895E9
:1056600080915902811102C00C94282B089580E189
:1056700089BD82E189BD09B400FEFDCF8091D800CB
:105680008F7D8093D8008091E00082608093E0005D
:105690008091E00081FDFCCF0895CF92DF92EF92E0
:1056A000FF920F931F93CF93DF93EC018B016A015D
:1056B0000E94B02C811133C0C114D10439F0F6011D
:1056C00080819181081B190BC80FD91FE12CF12C87
:1056D0000115110519F18091E80085FD16C0809132
:1056E000E8008E778093E800C114D10449F0F601F8
:1056F00080819181E80EF91EF182E08285E00FC081
:105700000E94B02C882321F30AC089918093F10074
:1057100001501109FFEFEF1AFF0ADACF80E0DF91A5
:10572000CF911F910F91FF90EF90DF90CF90089550
:105730002091A3023091A4022617370748F0611583
:10574000710539F42091E8002E772093E80001C01C
:10575000B90140E061157105A9F120919C02222355
:1057600009F443C0253009F442C02091E80023FD2C
:1057700040C02091E80022FD32C02091E80020FFC7
:10578000E9CF4091F3002091F20030E0342BFC018E
:10579000CF016115710559F02830310540F4819130
:1057A0008093F100615071092F5F3F4FF1CF41E0CD
:1057B0002830310509F040E02091E8002E77209351
:1057C000E800C8CF4111C9CF0AC080919C0288234C
:1057D00061F0853061F08091E80083FD0AC080911E
:1057E000E80082FFF2CF80E0089582E0089583E030
:1057F000089581E008952091A3023091A402261714
:10580000370748F06115710539F42091E8002E77CB
:105810002093E80001C0B901FC0120E06115710589
:1058200091F180919C02882309F440C0853009F4ED
:105830003FC08091E80083FD3DC08091E80082FD7B
:105840002FC08091E80080FFE9CF2091F300809184
:10585000F20090E0922B6115710559F088309105A6
:1058600040F424912093F100319661507109019622
:10587000F2CF21E0089709F020E08091E8008E77D0
:105880008093E800CBCF2111CCCF0AC080919C023D
:10589000882361F0853061F08091E80083FD0AC0C3
:1058A0008091E80082FFF2CF80E0089582E00895C1
:1058B00083E0089581E00895982F973058F59093EC
:1058C000E900981739F07091EC002091ED005091AB
:1058D000F00003C0242F762F50E021FF19C0309133
:1058E000EB003E7F3093EB003091ED003D7F309335
:1058F000ED003091EB0031603093EB007093EC00E1
:105900002093ED005093F0002091EE0027FF07C098
:105910009F5FD3CF8F708093E90081E0089580E08E
:10592000089580919D0287FF11C08091E80082FD5B
:1059300005C080919C028111F8CF11C08091E800D0
:105940008B770BC080919C02882349F08091E800FE
:1059500080FFF8CF8091E8008E778093E80008956B
:105960002091E4003091E50095E64091EC00842F11
:10597000817040FF22C08091E80080FD1CC08091B2
:105980009C02882391F0853091F08091EB0085FD99
:1059900010C04091E4005091E5004217530729F3ED
:1059A0009A01915011F784E0089582E0089583E010
:1059B000089581E0089580E008954091E80042FF55
:1059C000DECF08950E94502D0E94582DE0EEF0E0A9
:1059D000808181608083E8EDF0E080818F77808333
:1059E00019BCA7EDB0E08C918E7F8C9380818F7E67
:1059F000808310929B0208950F931F93CF93DF93A0
:105A00000E94502D0E94582DC8EDD0E088818F77DC
:105A1000888388818068888388818F7D888319BC8A
:105A200010929C021092980210929A02109299027F
:105A300000EE10E0F80180818B7F80838881816097
:105A4000888342E060E080E00E945C2CE1EEF0E0C0
:105A500080818E7F8083E2EEF0E0808181608083B0
:105A6000808188608083F80180818E7F8083888137
:105A700080618883DF91CF911F910F910895E8EDA8
:105A8000F0E080818F7E8083E7EDF0E080818160AF
:105A9000808384E082BF81E080939B020C94FC2C85
:105AA000E8EDF0E080818E7F80831092E20008951F
:105AB0001092DA001092E10008951F920F920FB633
:105AC0000F9211242F933F934F935F936F937F9384
:105AD0008F939F93AF93BF93EF93FF938091E100D8
