:100000000C9411080C9458080C9458080C94580837
:100010000C9458080C9458080C9458080C945808E0
:100020000C9458080C9458080C94472D0C94192ED5
:100030000C94A1230C9458080C9458080C9458085C
:100040000C9458080C9458080C9458080C945808B0
:100050000C9458080C9409240C9458080C945808D3
:100060000C9458080C9458080C9458080C94580890
:100070000C9458080C9458080C9458080C94580880
:100080000C9458080C9458080C9458080C94580870
:100090000C9458080C9458080C9458080C94580860
:1000A0000C9458080C9458080C945808AA0AAC0AE6
:1000B000B70AAE0AB00AB20AB40AB60AB90ABB0A4B
:1000C000BD0AC80ABF0AC10AC30AC50AC70ACA0AC2
:1000D0005119511983198319C119E119761B761B1E
:1000E000231A761BD01AD01A421B4B1B761B6F1B90
:1000F000DD1ADD1ADD1ADD1ADD1ADD1ADD1ADD1A48
:10010000DD1ADD1ADD1ADD1ADD1ADD1ADD1ADD1A37
:10011000EE1AFC1A031B0A1B141B051C051C171CDA
:10012000171C0E1C171C171C171C051C051C131C68
:10013000171C171C131C862EAD2E9F2FAD2E9F2F24
:10014000F92E1C2F9F2F722F812F07634236B79BEA
:10015000D8A71A39685618AEBAAB558C1D3CB7CC27
:100160005763BD6DEDFD753EF6177231BF0000009F
:10017000803F05A84CCDB2D44EB93836A9020C50F8
:10018000B9918688083CA6AAAA2ABE000000803F32
:100190002942A800AA00A9003D003E003F004000FF
:1001A00041004200430044004500460047004C0027
:1001B00035001E001F002000210022002300240023
:1001C0002500260027002D002E004C002A004A00A2
:1001D0002B00000014001A000800150017001C0076
:1001E00018000C00120013002F00300031004B00EB
:1001F0003900000004001600070009000A000B0087
:100200000D000E000F0033003400280000004E00E7
:10021000E10001511D001B0006001900050011003E
:1002200010003600370038000000E50052004D0095
:10023000E000E3000000E2002C0000002C000000C1
:100240002C000000E6000151E400500051004F0076
:100250000100010001000100010001000100010096
:100260000100010001000100010001000100010086
:100270000100010001000100010001000100010076
:10028000010001000100010001000100005C01000B
:1002900001000000C25CC35CC55CC65CC75CC85C96
:1002A000C95CCA5C010001000100010001000100FD
:1002B0000100000001000100010001000100010037
:1002C0000100010001000100010001000000010027
:1002D0000100010001000100BD5CBF5CBE5CC05CB0
:1002E0000100010001000100000001000100010007
:1002F00001000100000001000100000001000000F9
:1003000001000000010001000100010001000100E6
:100310000100013002300100010001000100010074
:1003200001000100010001000100010001000100C5
:1003300001000100010001000100010001000100B5
:1003400001000100010001000100010001000100A5
:100350000100000001000100010001000100010096
:100360000100010001000100010001000100010085
:100370000100000001000100010001000100010076
:100380000100010001000100010001000000010066
:100390000100010001000100010001000100010055
:1003A0000100010001000100000001000100010046
:1003B0000100010000000100010000000100000038
:1003C0000100000001000100010001000100010026
:1003D0000100010001000100010001000100010015
:1003E0000100010001000100010001000100010005
:1003F00001000100010001000100010001000100F5
:1004000001000100010001000100010001000100E4
:1004100001000000010001000100010001000100D5
:1004200001000100010001000100010001000100C4
:1004300001000000010001000100010001000100B5
:1004400001000100010001000100010000000100A5
:100450000100010001000100010001000100010094
:100460000100010001000100000001000100010085
:100470000100010000000100010000000100000077
:100480000100000001000100010001000100010065
:100490000100010001000100010001000100010054
:1004A0000100010001000100010001000100010044
:1004B0000100010001000100010001000100010034
:1004C0000100010001000100010001000100010024
:1004D0000100000001000100010001000100010015
:1004E0000100010001000100010001000100010004
:1004F00001000000010001000100010001000100F5
:1005000001000100010001000100010000000100E4
:1005100001000100010001000100010001000100D3
:1005200001000100010001000000010001000100C4
:1005300001000100000001000100000001000000B6
:1005400001000000010001000100010001000100A4
:100550000100010001000100010001000100010093
:100560000100010001000100010001000100010083
:100570000100010001000100010001000100010073
:100580000100010001000100010001000100010063
:100590000100000001000100010001000100010054
:1005A0000100010001000100010001000100010043
:1005B0000100000001000100010001000100010034
:1005C0000100010001000100010001000000010024
:1005D0000100010001000100010001000100010013
:1005E0000100010001000100000001000100010004
:1005F00001000100000001000100000001000000F6
:1006000001000000010001000100010001000100E3
:1006100001000100010001000100010001000100D2
:1006200001000100010001000100010001000100C2
:1006300001000100010001000100010001000100B2
:1006400001000100010001000100010001000100A2
:100650000100000001000100010001000100010093
:100660000100010001000100010001000100010082
:100670000100000001000100010001000100010073
:100680000100010001000100010001000000010063
:100690000100010001000100010001000100010052
:1006A0000100010001000100000001000100010043
:1006B0000100010000000100010000000100000035
:1006C0000100000001000100010001000100010023
:1006D0000100010001000100010001000100010012
:1006E0000100010001000100010001000100010002
:1006F00001000100010001000100010001000100F2
:1007000001000100010001000100010001000100E1
:1007100001000000010001000100010001000100D2
:1007200001000100010001000100010001000100C1
:1007300001000000010001000100010001000100B2
:1007400001000100010001000100010000000100A2
:100750000100010001000100010001000100010091
:100760000100010001000100000001000100010082
:100770000100010000000100010000000100000074
:100780000100000001000100010001000100010062
:100790000100010001000100010001000100010051
:1007A0000100010001000100010001000100010041
:1007B0000100010001000100010001000100010031
:1007C0000100010001000100010001000100010021
:1007D0000100000001000100010001000100010012
:1007E0000100010001000100010001000100010001
:1007F00001000000010001000100010001000100F2
:1008000001000100010001000100010000000100E1
:1008100001000100010001000100010001000100D0
:1008200001000100010001000000010001000100C1
:1008300001000100000001000100000001000000B3
:1008400001000000010001000100010001000100A1
:100850000100010001000100010001000100010090
:100860000100010001000100010001000100010080
:100870000100010001000100010001000100010070
:100880000100010001000100010001000100010060
:100890000100000001000100010001000100010051
:1008A0000100010001000100010001000100010040
:1008B0000100000001000100010001000100010031
:1008C0000100010001000100010001000000010021
:1008D0000100010001000100010001000100010010
:1008E0000100010001000100000001000100010001
:1008F00001000100000001000100000001000000F3
:1009000001000000010001000100010001000100E0
:1009100001000100010001000100010001000100CF
:1009200001000100010001000100010001000100BF
:1009300001000100010001000100010001000100AF
:10094000010001000100010001000100010001009F
:100950000100000001000100010001000100010090
:10096000010001000100010001000100010001007F
:100970000100000001000100010001000100010070
:100980000100010001000100010001000000010060
:10099000010001000100010001000100010001004F
:1009A0000100010001000100000001000100010040
:1009B0000100010000000100010000000100000032
:1009C0000100000001000100010001000100010020
:1009D000010001000100010001000100010001000F
:1009E00001000100010001000100010001000100FF
:1009F00001000100010001000100010001000100EF
:100A000001000100010001000100010001000100DE
:100A100001000000010001000100010001000100CF
:100A200001000100010001000100010001000100BE
:100A300001000000010001000100010001000100AF
:100A4000010001000100010001000100000001009F
:100A5000010001000100010001000100010001008E
:100A6000010001000100010000000100010001007F
:100A70000100010000000100010000000100000071
:100A8000010000000100010001000100010001005F
:100A9000010001000100010001000100010001004E
:100AA000010001000100010001000100010001003E
:100AB000010001000100010001000100010001002E
:100AC000010001000100010001000100010001001E
:100AD000010000000100010001000100010001000F
:100AE00001000100010001000100010001000100FE
:100AF00001000000010001000100010001000100EF
:100B000001000100010001000100010000000100DE
:100B100001000100010001000100010001000100CD
:100B200001000100010001000000010001000100BE
:100B300001000100000001000100000001000000B0
:100B4000010000000100010001000100010001009E
:100B5000010001000100010001000100010001008D
:100B6000010001000100010001000100010001007D
:100B7000010001000100010001000100010001006D
:100B8000010001000100010001000100010001005D
:100B9000010000000100010001000100010001004E
:100BA000010001000100010001000100010001003D
:100BB000010000000100010001000100010001002E
:100BC000010001000100010001000100000001001E
:100BD000010001000100010001000100010001000D
:100BE00001000100010001000000010001000100FE
:100BF00001000100000001000100000001000000F0
:100C000001000000010001000100010001000100DD
:100C100001000100010001000100010001000100CC
:100C200001000100010001000100010001000100BC
:100C300001000100010001000100010001000100AC
:100C4000010001000100010001000100010001009C
:100C5000010000000100010001000100010001008D
:100C6000010001000100010001000100010001007C
:100C7000010000000100010001000100010001006D
:100C8000010001000100010001000100000001005D
:100C9000010001000100010001000100010001004C
:100CA000010001000100010000000100010001003D
:100CB000010001000000010001000000010000002F
:100CC000010000000100010001000100010001001D
:100CD000010001000100010001000100010001000C
:100CE00001000100010001000100010001000100FC
:100CF00001000100010001000100010001000100EC
:100D000001000100010001000100010001000100DB
:100D100001000000010001000100010001000100CC
:100D200001000100010001000100010001000100BB
:100D300001000000010001000100010001000100AC
:100D4000010001000100010001000100000001009C
:100D5000010001000100010001000100010001008B
:100D6000010001000100010000000100010001007C
:100D7000010001000000010001000000010000006E
:100D8000010000000100010001000100010001005C
:100D900000047F3F1F643214643214783C1E1E141A
:100DA0000A056801F000B40078005A000000000055
:100DB000000101010101010101010202020202021E
:100DC00002020203030303030303030404040404F1
:100DD00004050505050506060606060707070708B4
:100DE0000808080909090A0A0A0A0B0B0B0C0C0C63
:100DF0000D0D0D0E0E0F0F0F1010111111121213F9
:100E0000131414151516161717181819191A1A1B72
:100E10001C1C1D1D1E1F1F202021222223242525CE
:100E200026272728292A2B2B2C2D2E2F2F30313205
:100E300033343536363738393A3B3C3D3E3F404116
:100E4000424344464748494A4B4C4D4F50515253F8
:100E5000555657585A5B5C5E5F60626364666769AB
:100E60006A6C6D6E707173747678797B7C7E80812C
:100E7000838486888A8B8D8F91929496989A9B9D75
:100E80009FA1A3A5A7A9ABADAFB1B3B5B7B9BBBD82
:100E9000BFC1C4C6C8CACCCFD1D3D6D8DADCDFE153
:100EA000E4E6E8EBEDF0F2F5F7FAFCFF04033000BE
:100EB00000000C034B0042004400370035000000E6
:100EC0000E0364007A00740065006300680000008F
:100ED0000403090409023B00020100A0FA0904000E
:100EE0000001030101000921110100012240000756
:100EF00005810308000A090401000103000000093C
:100F0000211101000122C0000705820320000A12FE
:100F100001100100000008EDFE6060010001020305
:100F20000105010902A10185020901A100050919B4
:100F300001290515002501950575018102950175A9
:100F40000381010501093009311581257F9502755D
:100F500008810609381581257F95017508810605E8
:100F60000C0A38021581257F950175088106C0C0DD
:100F700005010980A10185031601002603001A81DD
:100F8000002A8300751095018100C0050C0901A19C
:100F9000018504160100269C021A01002A9C027594
:100FA0001095018100C005010906A101850505070D
:100FB00019E029E71500250195087501810205084A
:100FC0001901290595057501910295017503910196
:100FD0000507190029EF1500250195F0750181021B
:100FE000C005010906A101050719E029E71500253B
:100FF000019508750181029501750881010508199F
:101000000129059505750191029501750391010569
:1010100007190029FF150026FF00950675088100B5
:10102000C00011241FBECFEFDAE0DEBFCDBF04B693
:1010300003FE27C08091A5029091A602A091A7026D
:10104000B091A8028730904BA740B04BD1F41092DA
:10105000A5021092A6021092A7021092A80214BE36
:1010600084B7877F84BF0FB6F894A89580916000FD
:10107000886180936000109260000FBEE0E0F8E3AA
:10108000099511E0A0E0B1E0EAEDF7E602C00590B5
:101090000D92A633B107D9F722E0A6E3B1E001C073
:1010A0001D92A53AB207E1F70E94692A0C94EB332E
:1010B0000C94000080E090E008950895089581E088
:1010C000089581FF02C0229A01C022982A980895AB
:1010D00081E008950C945F080C94260ECF92DF9265
:1010E000EF92FF92863030F4811105C0909180001C
:1010F0009F7D04C085E09091800090629093800075
:10110000282F30E0AFEFBFEF0E947C3325E030E0C6
:1011100040E050E00E9454332C3784E13807410509
:10112000510530F4C90169E070E00E942C3329C0F8
:10113000DA01C9018A50974DAF4FBF4F6627782F0C
:10114000892F9A2F25EF38E241E050E00E94543376
:1011500069017A01CA01B9010E941C339B01AC01EB
:10116000C701B6010E941C33BB27A92F982F872FD8
:10117000009721E0A207B10511F0BC0102C06FEF9A
:101180007FEF70938B0060938A00FF90EF90DF9069
:10119000CF900895269A2E9882E28093800089E16C
:1011A000809381008FEF9FEF90938700809386005C
:1011B0000C94E9270E943722811102C00E94B822B4
:1011C0000E94CA080C94240E0C9461080C94E40844
:1011D00008950E94F51B0E94E8082FEF84E39CE02D
:1011E000215080409040E1F700C000000C942F2473
:1011F000FF920F931F93CF93DF938C01FC01C0816B
:10120000D18180918901811113C08281882349F0A5
:10121000CE010E942A21F82E682FCE010E94CF20F5
:1012200004C0CE010E94FE20F82EBE018F2D04C006
:10123000CE010E942A21BE010E94770BEC01B80169
:101240000E946A08882309F44AC2CC3CFCE5DF0707
:1012500009F4DFC0E8F5C43C9CE5D90709F4A3C054
:10126000F8F4C531FCE5DF0778F4C2308CE5D80727
:1012700008F04EC1C1159CE5D90709F465C0C1301D
:10128000DC4509F469C01EC2C23CFCE5DF0709F475
:1012900076C008F07CC0C631DC4509F4ECC112C24E
:1012A000F8018281C83CFCE5DF0709F49AC040F4EC
:1012B000C63CECE5DE0709F488C008F480C08BC0AA
:1012C000CA3C9CE5D90709F498C008F490C09BC0BB
:1012D000C43DFCE5DF0709F4F6C0C0F4F8018281E3
:1012E000C03DFCE5DF0709F4BDC040F4CE3CECE5B1
:1012F000DE0709F49BC008F494C0A6C0C23D9CE57B
:10130000D90709F4CDC008F4BDC0D8C0C83DFCE57C
:10131000DF0709F495C150F4F8018281C63DFCE570
:10132000DF0709F447C108F4DEC065C1CC3DECE538
:10133000DE0709F4E4C0CD3DFCE5DF07C1F0CB3D9D
:10134000DC4509F0BFC1D4C0F8018281882309F4CB
:10135000C6C10E94E908C3C1F8018281882309F44B
:10136000BEC180912B02816080932B02B8C1F8012D
:101370008281882309F4B3C10E94B822B0C1F80168
:101380008281882309F4ABC10E94A812A8C1F80188
:101390008281882309F4A3C10E94FB21827261F03B
:1013A0000E944D129CC1F8018281882309F497C1E3
:1013B0000E94FB218272A1F30E943F1290C18823F8
:1013C00009F48DC10E9442118AC1882309F487C1A2
:1013D0000E94661184C1882309F481C10E9486118C
:1013E0007EC1882309F47BC10E94A61178C188239D
:1013F00009F475C10E94C61172C1882309F46FC136
:101400000E94E6116CC1882309F469C10E94FC0F97
:1014100066C1F8018281882309F461C10E9411101C
:101420005EC1882309F45BC181E029C0882309F4E7
:1014300056C10E94F30F823028F00E94F30F8530CE
:1014400008F4BACF82E01BC0882309F448C10E9487
:10145000F30F863028F00E94F30F883008F4ACCFE9
:1014600086E00DC0882309F43AC10E94F30F893049
:1014700028F00E94F30F8E3008F49ECF89E00E947E
:1014800050122DC1882309F42AC10E94F30F8F3016
:1014900028F00E94F30F843108F48ECF8FE0EFCF55
:1014A000882309F41CC10E94F30F853128F00E94A3
:1014B000F30F873108F480CF85E1E1CF882309F469
:1014C0000EC188E1DCCFF8018281882309F407C1CD
:1014D0000E94F30F893128F00E94F30F823208F442
:1014E0006BCF89E1CCCF882309F4F9C083E2C7CF61
:1014F000F8018281882309F4F2C080E006C0F80177
:101500008281882309F4EBC082E00E940A2BE7C0A5
:10151000F8018281882309F4DAC00E943722811100
:1015200002C00E94B8220E94542290E0909396023A
:1015300080939502FE01E350FC45E231F10530F461
:10154000EA5AFF4F809195020C9476338091950270
:10155000816027C0826025C0846023C0806121C073
:1015600080621FC080641DC080681BC0846088606A
:1015700018C08E7F16C08D7F14C08B7F12C08F7EE7
:1015800010C08F7D0EC08F7B0CC08F770AC08B7F01
:10159000877F07C087FB222720F991E0922790FBE5
:1015A00087F980939502809195020E9458220E94AB
:1015B000F51B95C0882351F010923B010E94D32364
:1015C000909338018093370182E020C080913B01E5
:1015D00081110FC080913701909138010E94DF2363
:1015E000883C910530F486E20E94871786E20E94CB
:1015F000A51882E022C0882361F010923C010E946D
:10160000D32390933A018093390180E20E940D190F
:1016100066C080913C0181110FC080913901909189
:101620003A010E94DF23883C910530F487E20E9452
:10163000871787E20E94A51880E20E9414194FC004
:10164000F80182818111D9CF80913C018111F4CFC1
:101650008091390190913A010E94DF23883C9105E5
:1016600058F780E20E94141988E20E94871788E2E6
:101670000E94A51834C00E94FB21282FF801828106
:1016800040910D0150910E01882379F02A7A91E062
:1016900009F490E090933601911102C069E201C013
:1016A00065E3CA010E941F230AC08091360181119F
:1016B00002C069E201C065E3CA010E942A230E94B8
:1016C000C8210DC081E080933B0180933C01C8019B
:1016D000DF91CF911F910F91FF900C94680880E0EB
:1016E000DF91CF911F910F91FF9008950895E72FFB
:1016F000F0E096E0899FE00DF11D112484E0EE0FEB
:10170000FF1F8A95E1F7E60FF11DEE0FFF1FE0576F
:10171000FE4F859194910895880F991FFC01E05721
:10172000F24F859194910895CF93DF930E94770BA8
:101730000E94840DEC01811521E5920708F042C05A
:10174000811560E5960708F02CC1883E910500F5EB
:10175000803E910508F0D4C1883A910570F4853A2D
:10176000910508F0A2C08130910509F4C9C108F4BF
:101770007AC1049708F0C4C176C18F3B910508F483
:101780009FC0803C910508F46EC1805C9109F9C04E
:10179000C11580E3D80780F4C11590E2D90708F09D
:1017A000EEC0C03FD10508F45EC1CF3FD10511F0B6
:1017B00008F0A6C1D065A4C1C11520E4D20708F085
:1017C000EDC0E2C0811569E5960760F5C11588E5B1
:1017D000D80708F032C1C11594E5D90778F4C115CE
:1017E00023E5D20708F00EC1C11562E5D60708F05F
:1017F000F3C0DC2FCC27C16FD06A82C1C11585E54B
:10180000D80708F415C1C11596E5D90708F02BC112
:101810008C2F0E94010E8F71C82FD0E0DC2FCC27B7
:10182000D0626EC18D3B2CE5920709F413C1D0F450
:10183000CB3B8CE5D80709F407C108F008C1C115F6
:101840002AE5D20708F00FC12C2F2F70206E30E050
:10185000306A84E0D695C7958A95E1F7CF70C901C3
:101860009C2BF0C0803C9C4509F4FAC0C13C8CE53F
:10187000D80760F4CE3B9CE5D90709F4EEC0CF3B16
:10188000DC4509F0F0C0C0E0D2ED3AC1CE0190567F
:101890008115904208F0E7C08D2F8F710E94010ED4
:1018A000DD27D0628F71D82B2BC1853A910509F4C1
:1018B000DDC0863A910509F0DCC0C2E8D0E420C161
:1018C000883A910509F4D8C0893A910509F4D7C03E
:1018D0008A3A910509F4D6C08B3A910509F4D5C02E
:1018E0008C3A910509F4D4C08B3B910509F4D3C01F
:1018F0008C3B910509F4D2C08D3A910509F4D1C011
:10190000803B910509F4D0C08E3A910509F4CFC00F
:101910008F3A910509F4CEC0813B910509F4CDC001
:10192000823B910509F4CCC0833B910509F4CBC0FF
:10193000843B910509F4CAC0853B910509F4C9C0EF
:10194000863B910509F4C8C0873B910509F4C7C0DF
:10195000883B910509F4C6C0893B910509F4C5C0CF
:101960008D3B910509F4C4C08E3B910509F4C3C0B9
:101970008A3B910509F4C2C0C0E0D4E4C1C0CE01E5
:101980009F700E948C0B5EC0CE019927D3FF03C0CD
:10199000EC01D86CB5C0EC01D06CB2C0DF70D06A7D
:1019A000AFC0837021E030E002C0220F331F8A9560
:1019B000E2F73C68CE0154E0969587955A95E1F799
:1019C0008370382BCF70C695C69580E2C89FE00122
:1019D0001124C22BD32B94C04C2F4695469590E2F0
:1019E000499FA0011124C370DD2721E030E0C90127
:1019F00002C0880F991FCA95E2F7EC01C42BD52BC2
:101A0000DC687EC04C2F4695469580E2489FA00139
:101A10001124C370DD2721E030E0C90102C0880F26
:101A2000991FCA95E2F7EC01C42BD52BDA6868C080
:101A3000DC2FCC27C46FD06A63C0DC2FCC27C06FEB
:101A4000D06A5EC0EC015CC0C0E0D4ED59C0C0E01B
:101A5000D5ED56C0C0E0D1ED53C0C0E0D0ED50C0D0
:101A6000C0E0D3ED4DC0C0E0D0E04AC0C1E8D0E452
:101A700047C0C3E8D0E444C0C2EED4E441C0C9EEDC
:101A8000D4E43EC0CAEED4E43BC0C5EBD4E438C0D5
:101A9000C6EBD4E435C0C3EBD4E432C0C4EBD4E429
:101AA0002FC0C7EBD4E42CC0CCECD4E429C0CDECDF
:101AB000D4E426C0C3E8D5E423C0CAE8D5E420C0F6
:101AC000C2E9D5E41DC0C4E9D5E41AC0C1E2D6E438
:101AD00017C0C3E2D6E414C0C4E2D6E411C0C5E224
:101AE000D6E40EC0C6E2D6E40BC0C7E2D6E408C016
:101AF000CFE6D4E405C0C0E7D4E402C0CAE2D6E42D
:101B0000CE01DF91CF9108958238910549F1B0F46B
:101B10008133910509F458C048F48932910509F4DC
:101B20004EC08A32910509F454C008958533910559
:101B300009F440C08933910599F00895833E9105D9
:101B400029F138F4803E910591F0823E9105A1F093
:101B50000895863E9105F9F0873E910531F108958B
:101B60002091950220FD3AC021FD38C00895809152
:101B7000950280FD35C032C08091950282FF32C04F
:101B80008091950284FD30C083EE39C0809195022A
:101B900082FD28C0F5CF8091950283FF27C08091F8
:101BA000950284FD21C087EE2AC08091950283FDB5
:101BB0001DC0F5CF8091950285FD1AC01BC0809194
:101BC000950285FD17C014C08091950286FD14C052
:101BD00015C08091950286FD11C00EC080EE0FC029
:101BE00089E30DC082EE0BC080E009C086EE07C01D
:101BF00089E205C085E303C08AE201C081E390E089
:101C000008959091950292FF0DC0282F28712830D9
:101C100019F4877F846006C0282F2471243011F4C2
:101C20008B7F886093FF0DC0282F2871283119F40D
:101C3000877E846106C0282F2471243111F48B7EA5
:101C4000886194FD877E08950C945D080C945E086D
:101C5000E0E3F1E041E050E026E02E0F9191A92F62
:101C6000A295AF70B0E091963C9191979F70BA01A8
:101C700002C0660F771F9A95E2F7CB018095832308
:101C800091968C932E13EACFA0E2B1E041E050E0B0
:101C900020E12A0F8D91E82FE295EF70F0E031A15D
:101CA0008F70BA0102C0660F771F8A95E2F7CB01E9
:101CB000962F9095932391A392A1892B82A32A1307
:101CC000E9CFE9E4F1E0ADE3B1E0119211921D92A8
:101CD0001D9271E0E535F707C1F786E00E94140F09
:101CE0000C94DA084F925F927F928F929F92AF92FC
:101CF000BF92CF92DF92EF92FF920F931F93CF93F9
:101D0000DF9320E3422E21E0522EA9E4B1E020E04F
:101D100001E010E05D018D909C90119711961C924E
:101D20001E92E20189912E01E82FE295EF70F0E01A
:101D300031A18F70A80102C0440F551F8A95E2F7A8
:101D4000CA01342B31A342A1382F3095432342A33B
:101D500050EA5A95F1F790E2C92E91E0D92E40E071
:101D600050E0E60179906E01672D62956F7070E02A
:101D7000EB01E8A06D917C911197F12CD72DDF70CC
:101D800002C0F594E794DA95E2F7E0FC08C0780128
:101D9000042E02C0EE0CFF1C0A94E2F702C0E12CF4
:101DA000F12C6E297F2911967C936E934F5F5F4FC4
:101DB00040315105B1F691A1392331A392A1892B6C
:101DC00082A3129681E0F501408151818416950627
:101DD00009F480E0282BF1E0A535BF0709F09ACF80
:101DE00046E06DE371E089E491E00E94150F0E94E6
:101DF0006C0881E0DF91CF911F910F91FF90EF90E0
:101E0000DF90CF90BF90AF909F908F907F905F902A
:101E10004F900895E82FF0E0EE0FFF1FE35CFE4FB8
:101E200080819181089508950895FF920F931F93E3
:101E3000CF93DF93F82E092F162FD72FC42F2223ED
:101E400049F081E0809357010E94D323909356017B
:101E500080935501809157018823B9F080915501F5
:101E6000909156010E94DF23069778F0EF2DF02F16
:101E7000A12FBD2F80E08C1731F0219131912D934E
:101E80003D938F5FF8CF10925701DF91CF911F9153
:101E90000F91FF900895EF92FF920F931F93CF93AE
:101EA000DF93E901493C08F048EC662309F44BC094
:101EB000242F30E0EFEFF0E0E61BF109B901E69FD7
:101EC0009001E79F300DF69F300D1124232F8B01D9
:101ED000031B11095CE3E52EF12CB7010E942C33A2
:101EE000FB01BC01069FC001079F900D169F900D3E
:101EF0001124B7010E942C33E230F105B1F040F417
:101F0000309779F0319711F5832F242F461B21C08C
:101F1000E430F105A1F068F03597C1F4842F861BF9
:101F200018C0832F262F230F14C0862F830FE42F72
:101F300003C0E42FE61B842F432F2E2F0AC0842FCB
:101F4000462F430F06C0842F242F03C080E020E0DB
:101F500040E0E42FF0E0E455F24F4491E22FF0E04E
:101F6000E455F24F9491E82FF0E0E455F24FE491FC
:101F700049839883EA83DF91CF911F910F91FF905E
:101F8000EF90089588E090E00C94AB33CF92DF920D
:101F9000EF92FF926B017C010E94C20F6C157D05D0
:101FA0008E059F0551F0B701A60188E090E0FF90F3
:101FB000EF90DF90CF900C94C933FF90EF90DF90BB
:101FC000CF900895EAE5F2E083E0808310925B020F
:101FD0008FEF828388EC8383148260817181828198
:101FE00093810C94C60F80915A0280FF03C086959E
:101FF0008F73089580E0089580915E0290E00196CD
:102000008430910514F083E090E080935E0260914B
:102010005A0270915B0280915C0290915D020C9477
:10202000C60F80915E0290E0019797FF02C080E0AA
:1020300090E08430910514F083E090E080935E029C
:1020400060915A0270915B0280915C0290915D02F6
:102050000C94C60F80915A0280FF06C060E170E0C8
:102060008FE592E00C94151680E090E0FC01E15AB7
:10207000FD4F118210821282039680339105B1F7D1
:10208000EDCF90915A0290FF0FC020E030E0F901AF
:10209000E15AFD4F8183608342832D5F3F4F2033A0
:1020A0003105A9F70C942A100895CF93DF9300D03F
:1020B0001F92CDB7DEB720915A0220FF0AC09E01C1
:1020C0002F5F3F4F0E944B0F4B8169818A810E9495
:1020D00041100F900F900F90DF91CF9108955F9274
:1020E0006F927F928F929F92AF92BF92CF92DF9228
:1020F000EF92FF920F931F93CF93DF9300D01F9225
:10210000CDB7DEB78C01E62EF42E522E80915A0206
:1021100080FF8BC0982F9E77923061F49E012F5FD5
:102120003F4FC8010E944B0F4B8169818A810E94F9
:1021300041105BC0E82FE695EF739EE39E0F9F73FF
:10214000943018F4F0905D0250C09AE39E0F9F7394
:10215000993068F4881F8827881F90915B02292F87
:10216000220F022F082B97FB112710F93EC087E2A0
:102170008E0F8F738A30C8F5F0E07997E0FD02C0CA
:1021800021E001C02FEFEE7FEE55F24F8591949143
:10219000AC0184E0569547958A95E1F72403400108
:1021A000259F900C1124580188E9A81A8EEFB80ACF
:1021B0009FE5C92E92E0D92E28E6622E77247394EB
:1021C000C501B3010E942C3396014F2D6E2D0E9444
:1021D0004B0FA80CB91C83E0C80ED11C8FE8C816A1
:1021E00082E0D80669F70E942A1080915A0200FB0B
:1021F00087F980935A02902F969580915B028078A0
:10220000892B10FB87F980935B02E0925C02F092CD
:102210005D02552051F060915A0270915B028091ED
:102220005C0290915D020E94C60F0F900F900F907C
:10223000DF91CF911F910F91FF90EF90DF90CF90A2
:10224000BF90AF909F908F907F906F905F90089518
:10225000282FEAE5F2E09081991F9927991F309184
:102260005B02832F880F482F492B37FB552750F9E6
:10227000CA01089668E671E00E944033438162819A
:102280000C946F1081E00C942811282F90915A0221
:10229000991F9927991F30915B02832F880F482F30
:1022A000492B37FB552750F9CA01483051051CF41A
:1022B000805A9E4F01C0089768E671E00E94403343
:1022C00040915D0260915C020C946F1081E00C946F
:1022D000451160915C02262F30E0283F310514F44F
:1022E000685F01C06FEF30915A02331F3327331FED
:1022F00090915B02592F550F97FB992790F9282F42
:1023000040915D02852F832B0C946F1081E00C941B
:10231000691160915C02262F30E02830310514F0FD
:10232000685001C060E030915A02331F3327331FD9
:1023300090915B02592F550F97FB992790F9282F01
:1023400040915D02852F832B0C946F1081E00C94DB
:10235000891140915D02242F30E0213C310514F4B5
:10236000485F01C048EC30915A02331F3327331FB6
:1023700090915B02592F550F97FB992790F9282FC1
:1023800060915C02852F832B0C946F1081E00C947C
:10239000A91140915D02242F30E02830310514F05E
:1023A000485001C040E030915A02331F3327331F99
:1023B00090915B02592F550F97FB992790F9282F81
:1023C00060915C02852F832B0C946F1081E00C943C
:1023D000C91120E00C946F10CF9390915A0290FF96
:1023E00040C09178811102C0926007C0853210F020
:1023F000986403C08F73880F982B90935A026623BA
:1024000051F060915A0270915B0280915C02909150
:102410005D020E94C60FC0915A026C2F66956F73C1
:1024200070E04BE050E082E091E00E949633892B0F
:1024300019F01092750103C081E080937501CC1FE3
:10244000CC27CC1F90915B02892F880F97FB99278F
:1024500090F940915D0260915C028C2BCF910C94BD
:10246000E911CF910895682F90915A0296959F7324
:1024700081E0890F853208F081E00C94EC1181E055
:102480000C943312682F90915A0296959F738FEF98
:10249000890F09F484E20C94EC1181E00C9442124F
:1024A00061E00C94EC11EAE5F2E0808181608083C8
:1024B00086958F730C94501260E00C94EC1180910F
:1024C0002B02816080932B020E943722811104C06D
:1024D0000E94B8220E94E20F0E94C20F60935A022B
:1024E00070935B0280935C0290935D026E7761F45F
:1024F0000E94E20F0E94C20F60935A0270935B0227
:1025000080935C0290935D0281E0809375018091DD
:102510005A0280FF04C086958F730C945C12089554
:10252000EAE5F2E080818E7F808360817181828123
:1025300093810E94C60F109275012FEF80E792E001
:10254000215080409040E1F700C000000C942A1018
:1025500080915A0280FD0C9490120C945312CF93E8
:10256000C82F80917301909174010E94DF23EC2F9A
:10257000F0E0E256F24FE491F0E08E179F0708F486
:1025800043C00E94D32390937401809373016091A0
:10259000720170E080E090E00E941D3120E030E0A8
:1025A0004FE753E40E9440302BED3FE049E450E414
:1025B0000E9446320E94B3320E94BA302BE43AE3C2
:1025C0004EE25FE30E94D32F20EF3BEF48ED52E451
:1025D0000E9446320E94EC30462F80915A02881F9A
:1025E0008827881F90915B02292F220F97FB99273C
:1025F00090F960915C02822B0E94551080917201CB
:1026000090E0019680937201CF910895CF93C82FE7
:1026100080917001909171010E94DF23EC2FF0E016
:10262000E556F24FE491F0E08E179F07E8F00E9424
:10263000D323909371018093700140915D0260916A
:102640005C0280916E0190916F010E945510809103
:102650006E0190916F01019668E671E00E942C3343
:1026600090936F0180936E01CF910895CF92DF9286
:10267000FF920F931F93CF93DF93F82E80916C01FD
:1026800090916D010E94DF23EF2DE695F0E0E85672
:10269000F24FE491F0E08E179F07F0F10E94D323F0
:1026A00090936D0180936C010FE512E0C0E0D0E0E3
:1026B00088E6C82EDD24D39480916A0190916B0145
:1026C0008C0F9D1FB6010E942C33980140915D0232
:1026D00060915C020E944B0F66960D5F1F4FC036E3
:1026E00081E0D80749F70E942A1020916A013091B1
:1026F0006B01F0FE0BC0C901019668E671E00E9413
:102700002C3390936B0180936A0106C021503109EC
:1027100030936B0120936A01DF91CF911F910F914C
:10272000FF90DF90CF900895AF92BF92CF92DF924B
:10273000EF92FF920F931F93CF93DF93C82F80FFE9
:1027400002C01FEF01C011E0809168019091690102
:102750000E94DF23C695EC2FF0E0EB56F24FE49198
:10276000F0E08E179F0708F465C00E94D323909372
:102770006901809368012FE5C22E22E0D22E31E656
:10278000E32E32E0F32EC0E0D0E0F7013197108263
:10279000F6011082F701108294E0A92EB12C00E01E
:1027A00080916701800F87FD805F082E000C990BD8
:1027B000C817D907E9F480915D028A9DA0018B9D1D
:1027C000500D1124559547955595479580915A027E
:1027D000881F8827881F90915B02592F550F97FB00
:1027E000992790F9960160915C02852B0E944B0F0E
:1027F000010FF1E0AF1AB10899F6219683E0C80EF7
:10280000D11CE3E0EE0EF11CC031D10509F0BDCFC3
:102810000E942A1080916701113031F4811102C0A9
:102820008FE006C0815004C090E001968F70992718
:1028300080936701DF91CF911F910F91FF90EF90EF
:10284000DF90CF90BF90AF900895EF92FF920F93DB
:102850001F93CF93DF93C82F8091650190916601FC
:102860000E94DF23EC2FF0E0EE56F24FE491F0E00F
:102870008E179F0708F464C00E94D32390936601CB
:102880008093650180E090E0FC01E15AFD4F1182E8
:1028900010821282039680339105B1F78FE5E82EFE
:1028A00082E0F82E01E612E0C0E0D0E08091640101
:1028B000082E000C990BC817D907ECF08091010184
:1028C000082E000C990B8C179D07ACF080915A02D2
:1028D000881F8827881F90915B02592F550F97FBFF
:1028E000992790F9970140915D0260915C02852BD8
:1028F0000E944B0F07C0F80131971082F701108238
:10290000F80110822196F3E0EF0EF11C0D5F1F4FCE
:10291000C031D10559F60E942A1080910001909192
:102920006401980F9093640120910101280F209376
:102930000101121614F49F301CF081958093000160
:10294000DF91CF911F910F91FF90EF900895EF923B
:10295000FF920F931F93CF93DF9380916201909129
:1029600063010E94DF23883E9340D0F10E94D3236D
:102970009093630180936201C0916001D0916101E5
:102980002196C170DD27D0936101C09360018FE56E
:10299000E82E82E0F82E10E008E7812F8695FE01F0
:1029A000E80FF11DCF0181709927970140915D02D9
:1029B00060915C02FC010E9FC0010F9F900D1124DD
:1029C0000E944B0F1F5FF3E0EF0EF11C103129F74F
:1029D000DF91CF911F910F91FF90EF900C942A10EF
:1029E000DF91CF911F910F91FF90EF900895CF93BA
:1029F000DF9300D01F92CDB7DEB780915E0190913A
:102A00005F010E94DF23E0E9FDE025913491821708
:102A10009307C0F180915D0181110CC09E012F5F71
:102A20003F4F48EC6FEF80E090E00E944B0F8A81AF
:102A300080935D010E94D32390935F0180935E0198
:102A400080915C01813051F028F0823061F4409136
:102A50005D010AC080915D0140E007C060915D01A9
:102A600040E080E003C040E080E060E00E94411070
:102A700080915C0190E0019663E070E00E94403339
:102A800080935C010F900F900F90DF91CF9108958C
:102A90000F931F93CF93DF9380915A0190915B0125
:102AA0000E94DF23843F914008F448C00E94D32352
:102AB00090935B0180935A01CFE5D2E000E010E0F3
:102AC000209158013091590180915A0290915B02F6
:102AD000083011051CF4232B79F002C0232B61F47C
:102AE000881F8827881F592F550F97FB992790F922
:102AF0009E0140915D020AC0881F8827881F592FB8
:102B0000550F97FB992790F99E0140E060915C0278
:102B1000852B0E944B0F0F5F1F4F2396003111052D
:102B200079F60E942A1080915801909159010196DE
:102B3000817099279093590180935801DF91CF912B
:102B40001F910F910895809175018823D9F190917B
:102B50005A02892F86958F732EE3280F2F73243006
:102B600018F482500C94AF122AE3280F2F732330ED
:102B700018F486500C94061327E3280F2F73263081
:102B800018F489500C94361321E3280F2F73263044
:102B900018F48F500C9494132BE2280F2F732330CA
:102BA00018F485510C942514892F8E77803311F4F5
:102BB0000C94A714863411F40C94F714883411F48F
:102BC0000C94481508952EB1342F309523233EB12F
:102BD000432B3FB7F894FC01680F791FE617F707FE
:102BE00089F0819198E04EB9000000C087FF2EB9AE
:102BF000880F000000C000C000C02EB900C09A9528
:102C000091F7ECCF3FBF08952DB1242B2DB99B0137
:102C1000220F331F620F731F0E94E31587EC90E0B1
:102C20000197F1F700C00000089544E00C940416E9
:102C300090937B0180937A010895E0917A01F0915D
:102C40007B01309721F00190F081E02D099480E024
:102C50000895E0917A01F0917B01309799F02091ED
:102C60001F01222359F02091950227FF07C0DC01A4
:102C70002C9111962C93119725E02C930280F381CF
:102C8000E02D09940895E0917A01F0917B0130974D
:102C900039F022E0DC012C930480F581E02D0994C9
:102CA000089520917801309179018217930771F08E
:102CB0009093790180937801E0917A01F0917B0102
:102CC000309721F00680F781E02D09940895209136
:102CD0007601309177018217930771F09093770115
:102CE00080937601E0917A01F0917B01309721F099
:102CF0000084F185E02D0994089585B7806885BF2B
:102D000085B7806885BF089508950E947D160C944C
:102D1000841681E008950E94CA230E94280E0E9412
:102D20009F240E94E9270C945F124F925F927F923A
:102D30008F929F92AF92BF92CF92DF92EF92FF92CB
:102D40000F931F93CF93DF93CDB7DEB72A970FB6BC
:102D5000F894DEBF0FBECDBF0E94720E0E9489168E
:102D6000811111C08FEF89838A831B820E94D32334
:102D70008160782F9D838C8349815A816B818D81FD
:102D80000E94531757C09DE7C92E91E0D92E00E04D
:102D900010E0AA24A394B12C702E802F0E940A0F59
:102DA0004C01F601419051906F014826592641147B
:102DB000510431F40F5F1F4F0630110569F7D2CF70
:102DC00080912B0281FD0E94130F20E030E07501FD
:102DD000022E02C0EE0CFF1C0A94E2F7C701842108
:102DE0009521892B09F12E837F828E209F2091E0EF
:102DF000892809F490E098870E94D3238160782F76
:102E00009A8789874E815F8168858A850E945317DA
:102E1000000F111FF801E358FE4F80819181E826D1
:102E2000F926F182E08206C02F5F3F4F2031310545
:102E300071F6C0CF0E94422710917C010E941D169E
:102E40001817D9F00E941D1680937C012A960FB6A0
:102E5000F894DEBF0FBECDBFDF91CF911F910F91D0
:102E6000FF90EF90DF90CF90BF90AF909F908F90AA
:102E70007F905F904F900C94E6082A960FB6F894D6
:102E8000DEBF0FBECDBFDF91CF911F910F91FF909D
:102E9000EF90DF90CF90BF90AF909F908F907F90FA
:102EA0005F904F900895CF93DF93CDB7DEB72B9708
:102EB0000FB6F894DEBF0FBECDBF4F83588769872A
:102EC0007A878B87DE01119686E0FD0111928A9543
:102ED000E9F785E0FE01379601900D928A95E1F7BA
:102EE00049815A816B817C818D819E810E949F1EC8
:102EF0002B960FB6F894DEBF0FBECDBFDF91CF91FA
:102F00000895FC01808191810E94692108958823A0
:102F100009F41AC18238C1F40E941D1681FD14C142
:102F200069E380910D0190910E010E941F230E9480
:102F3000C8212FEF81EE94E0215080409040E1F7CE
:102F400000C0000069E319C08338F9F40E941D161F
:102F500080FDFAC063E580910D0190910E010E9401
:102F60001F230E94C8212FEF81EE94E02150804062
:102F70009040E1F700C0000063E580910D01909161
:102F80000E010E942A230C94C8218438C1F40E94A7
:102F90001D1682FDD9C067E480910D0190910E014C
:102FA0000E941F230E94C8212FEF81EE94E0215040
:102FB00080409040E1F700C0000067E4DECF9CEF66
:102FC000980F913A40F4682F80910D0190910E0175
:102FD0000E941F23D8CF90E2980F983050F487704A
:102FE00091E001C0990F8A95EAF7892F0E94FE218E
:102FF000CACF9BE5980F933070F4853A29F0863A52
:1030000031F083E890E005C081E890E002C082E8FA
:1030100090E00C94511698E5980F973108F08EC007
:10302000883A09F445C0893A09F445C08A3A09F456
:1030300045C08B3A09F445C08C3A09F445C08B3B36
:1030400009F445C08C3B09F445C08D3A09F445C0EC
:10305000803B09F445C08E3A09F445C08F3A09F423
:1030600045C0813B09F445C0823B09F445C0833B20
:1030700009F445C0843B09F445C0853B09F445C0CB
:10308000863B09F445C0873B09F445C0883B09F4F9
:1030900045C0893B09F445C08D3B09F445C08E3BD2
:1030A00009F445C08A3B09F445C080E090E044C083
:1030B00082EE90E041C089EE90E03EC08AEE90E062
:1030C0003BC085EB90E038C086EB90E035C083EBE9
:1030D00090E032C084EB90E02FC087EB90E02CC0F2
:1030E0008CEC90E029C08DEC90E026C083E891E064
:1030F00023C08AE891E020C082E991E01DC084E904
:1031000091E01AC081E292E017C083E292E014C01D
:1031100084E292E011C085E292E00EC086E292E085
:103120000BC087E292E008C08FE690E005C080E720
:1031300090E002C08AE292E00C946716803F20F093
:103140000E944A260C9437270895882309F464C006
:10315000823879F40E941D1681FF5EC069E3809178
:103160000D0190910E010E941F230E94C82169E366
:1031700010C08338B1F40E941D1680FF4DC063E576
:1031800080910D0190910E010E941F230E94C82181
:1031900063E580910D0190910E010E942A230C9409
:1031A000C821843879F40E941D1682FF35C067E477
:1031B00080910D0190910E010E941F230E94C82151
:1031C00067E4E7CF9CEF980F913A10F4682FE1CFB6
:1031D00090E2980F983050F4877091E001C0990FF9
:1031E0008A95EAF7892F0E940422D9CF9BE5980F90
:1031F000933020F480E090E00C94511698E5980FFD
:10320000973120F480E090E00C946716803F20F026
:103210000E94B2260C9437270895882321F00E943B
:10322000FE210C94C8210895882321F00E940422D5
:103230000C94C82108954F925F926F927F92BF9233
:10324000CF92DF92EF92FF920F931F93CF93DF9372
:103250007C01D62FC72FFC01058102950F701281CA
:1032600011110E941B220E94C121882379F0112391
:1032700069F080E28D0F883048F082E00E94AA2138
:103280000E94C12191E0B82EB92601C0B12CCC2EEC
:10329000C2948FE0C822D12CF601E859FF4F0C945C
:1032A00076338C2F807FCF70882311F0C295C07F3A
:1032B000112399F0CC2309F4D0C180E28D0F88301E
:1032C00010F0D11104C08C2F0E94FE2103C08C2F5E
:1032D0000E940E220E94C821C0C18D2F0E94A518F5
:1032E000CC2309F403C280E28D0F883010F0D11195
:1032F00004C08C2F0E94042203C08C2F0E94142231
:103300000E94C821F3C18C2F807FCF70803211F0D2
:10331000C295C07FDD2319F0D130C9F022C011233E
:1033200071F0002341F0013031F40E9434228C2BE3
:103330000E942E22DBC10E9434228C2B46C1002326
:1033400019F0013009F4D2C10E94312218C01123B2
:1033500021F0063008F0CAC10EC0053008F0C6C121
:103360000EC0112351F0002331F0F701858180FF59
:1033700074C18F7085838C2F28C101117FC18C2F60
:103380002AC18C2F86958695837090E0009719F05E
:10339000019761F0ABC1112321F08D2F9C2F937009
:1033A00002C080E090E00E945116B0C1112321F0CC
:1033B0008D2F9C2F937002C080E090E00E946716D2
:1033C000A5C11123F9F0D53F51F0D63F71F0D43F9C
:1033D000A9F480918F029091900281600BC080913E
:1033E0008F0290919002826005C080918F0290912F
:1033F000900284609093900280938F028D2F0E94A0
:103400004A261EC0D53F51F0D63F71F0D43FA9F4F3
:1034100080918F02909190028E7F0BC080918F02DD
:10342000909190028D7F05C080918F0290919002C3
:103430008B7F9093900280938F028D2F0E94B226F3
:103440000E94372763C18C2F837009F050C011117F
:1034500059C18D2F829586958770880F880F9D2F73
:103460009F70492E512C612C712C082E04C0440CE5
:10347000551C661C771C0A94D2F7D4FF14C00FE0C9
:1034800010E020E030E0B901A80104C0440F551F4E
:10349000661F771F8A95D2F7CB01BA0160957095A8
:1034A0008095909503C060E070E0CB01C695C6950D
:1034B000C370D0E0C230D10561F0C330D10581F0D6
:1034C0006429752986299729219771F00E94E41FA4
:1034D00019C164297529862997290E94F61F12C1EE
:1034E0000E94E41FC301B2010E94D21F0BC111232D
:1034F00019F08C2F817001C08695882309F402C1D0
:103500008D2F829586958770880F880F9D2F9F70CD
:10351000492E512C612C712C082E04C0440C551CD2
:10352000661C771C0A94D2F7D4FF14C00FE010E099
:1035300020E030E0B901A80104C0440F551F661F08
:10354000771F8A95D2F7CB01BA0160957095809567
:10355000909503C060E070E0CB01C695C695C3703E
:103560004C2F50E04230510569F04330510589F04D
:1035700064297529862997294130510571F00E94E7
:10358000AA20C0C064297529862997290E94BC20D9
:10359000B9C00E94AA20C301B2010E949820B2C003
:1035A0008D2F90E0FC01E05EF109E531F10508F0B6
:1035B00050C0E858FF4F0C947633DF708C2F8F711A
:1035C000112331F00E9431208D2F0E940D198EC0E1
:1035D0000E9452208D2F0E94141988C0112341F09F
:1035E000053008F083C08C2F8F710E9477207EC039
:1035F000063008F07BC0F7CF112339F08C2F8F7184
:103600000E94312073C01123C9F38C2F8F710E9447
:1036100052206CC0112329F08C2F8F710E941C2026
:1036200065C00E94172062C0112349F0CF718C2F12
:103630000E94312063E08C2F0E94A12157C081E0BD
:103640000E94AA21023008F451C082E00E94AA21FF
:103650004DC0112331F0002389F28D2F0E9487176E
:1036600045C0002391F2D93349F45FEF67EE73E070
:10367000515060407040E1F700C000008D2F0E9463
:10368000A51834C04C2F4F706D2FC7010E945A08E7
:103690000E94431F3BC0111139C0CF70D0E0C2302F
:1036A000D10599F03CF4209769F02197F9F40E9434
:1036B00023282CC0C430D10571F054F02597B1F403
:1036C00080E00AC00E94062821C00E9462281EC015
:1036D0000E9469281BC085E00E948C2817C04C2FCF
:1036E0004F706D2FC7010E94760B10C088E0C8167E
:1036F000D10441F05CF0EAE0CE1AD108F2E0CF1636
:10370000D10420F40E941D160E94E608BB20F1F0AF
:103710000E949D2180FD1AC0F70112820E9497210C
:103720000E943120C7010E94B41B0E949721DF91A3
:10373000CF911F910F91FF90EF90DF90CF90BF90AE
:103740007F906F905F904F900C945220DF91CF91BB
:103750001F910F91FF90EF90DF90CF90BF907F90DF
:103760006F905F904F9008950F931F93CF93DF93C7
:10377000EC01888199812B813C81232BB9F09F3FFB
:1037800011F48F3F99F0CE010E94F808882371F060
:10379000688179818A810E9474218C010E94CE20E7
:1037A0000E94CF1FB801CE010E941B19DF91CF915B
:1037B0001F910F9108950E941B220E942B220E94AC
:1037C000C8210E94DD270E94372780E090E00E94F8
:1037D000511680E090E00C94671680910D01909155
:1037E0000E010E9435230C94DB1B0E940B220C94CB
:1037F000ED1BE92FE295EF70F0E03297EE30F10526
:10380000B0F4E357FF4F0C947633803F91F018F4F7
:10381000803E68F40EC0843F51F40BC0803E48F0F7
:10382000813F29F406C093FB882780F9089580E042
:10383000089581E008950E9469210E94F91B08956E
:10384000CF93DF9300D000D01F92CDB7DEB70F909B
:103850000F900F900F900F90DF91CF910895CF931D
:10386000DF9300D000D000D0CDB7DEB726960FB6DC
:10387000F894DEBF0FBECDBFDF91CF9108951F93A7
:10388000CF93DF93C0918A0116E080918B01C81716
:1038900099F0D0E01C9FF0011D9FF00D1124E4571A
:1038A000FE4F4081518162817381848195810E94A4
:1038B0002F1C2196C770E9CFDF91CF911F910895FA
:1038C0004091BC015091BD016091BE017091BF015A
:1038D0008091C0019091C1010C942F1C8091C10175
:1038E00082958F7009F054C08091BE01882309F43D
:1038F0004FC080918A01A0918B016091BC017091B1
:10390000BD014091BF015091C001B6E08A1709F492
:103910003FC090E041155105C1F17F3F11F46F3F69
:10392000A1F1B89FF001B99FF00D1124E457FE4FAB
:10393000218172132AC02081621327C022812111A4
:1039400024C0238134812417350710F42150310914
:10395000241B350B283C3105C0F42091C1012F7088
:1039600020612093C10126E0289FF001299FF00DDE
:103970001124EF56FE4F80818F70806180838CEB25
:1039800091E00E94B41B0C943F1C01968770BECF3F
:103990000895CF92DF92EF92FF920F931F93CF93F0
:1039A000DF93CDB7DEB762970FB6F894DEBF0FBED8
:1039B000CDBF8C0185E0F801DE011D9601900D92CE
:1039C0008A95E1F7D8014C9111965C911197129666
:1039D0006C9112971396CD90DC9014973091BC01A6
:1039E0007091BD018091BF019091C001009709F4D1
:1039F0006BC17F3F19F43F3F09F466C1E090BE01FF
:103A0000EE2009F4C0C02091C101C816D90628F0E3
:103A1000F601E81BF90BCF0104C0809590958C0D41
:103A20009D1DFF24F394883C910578F0F12C207FB4
:103A300009F0C6C07C2DD98AC88A89890E94201CB9
:103A40008CEB91E00E94B41BB1C0822F807F09F003
:103A500046C0751314C0341312C0611110C02F700A
:103A600020612093C1010E94601C8CEB91E00E94B8
:103A7000B41B8091C101D80115968C932EC0CD281E
:103A800019F15F3F11F44F3FF9F0F62E61111CC0A0
:103A900080918A0120918B0136E0821709F45AC087
:103AA00090E0389FF001399FF00D1124E457FE4F4C
:103AB0007181571306C07081471303C07281711161
:103AC00003C001968770E9CFF62E662309F427C15B
:103AD0008091C10181608093C101F12C20C17513D7
:103AE00008C0341306C0611104C08091C101D8011F
:103AF000C3C04D875E878D859E856A8B0E941B1C87
:103B00006A898823E1F16623D1F12091C101822FD6
:103B100082958F7090E0029774F08091BC01909133
:103B2000BD0198878F831986DB86CA862C87CE01D4
:103B300007960E94B41B86E0F801ACEBB1E001905F
:103B40000D928A95E1F70E946E1C0E94601CFF2472
:103B5000F394E5C04D875E878D859E850E9469211F
:103B6000292F22952F7030E0223031050CF0CBC088
:103B70009F7009F0C5C0805E883008F4D0C0C801CD
:103B80000E94B41BE4CFC816D90608F453C0F6014E
:103B9000E81BF90BCF01883C910508F450C0F12CCB
:103BA0007C2DD98AC88A89890E94201CECEBF1E01F
:103BB00086E0DF011D928A95E9F70E94601CAFC084
:103BC000751314C0341312C0611110C08091C1016B
:103BD000F8018583C8010E94B41B86E0ECEBF1E09C
:103BE000DF011D928A95E9F7FE2C99C04D875E870B
:103BF0008D859E856A8B0E941B1C6A89882309F427
:103C0000BECF662309F4BBCF2091C101822F8295DC
:103C10008F7090E002970CF48ECF8091BC01909150
:103C2000BD019A8389831B82DD82CC822E83CE01E3
:103C300001967FCF809590958C0D9D1DACCFF62E73
:103C4000662309F49CCF75132EC034132CC0209129
:103C5000C10120FD1FC0822F82958F70D9F0D8013D
:103C600015962C9315978F3049F08F5F982F92956A
:103C7000907F822F8F70892B15968C93C8010E949C
:103C8000B41B86E0F801ACEBB1E001900D928A958F
:103C9000E1F793CF86E0F801ACEBB1E001900D9233
:103CA0008A95E1F73CC04D875E878D859E850E9491
:103CB0001B1C811140CF8091C10181608093C101A3
:103CC000C8010E94B41B2BC0662309F458CF4D874E
:103CD0005E878D859E850E941B1CF82E882309F423
:103CE0004ECF86E0F801ACEBB1E001900D928A95E1
:103CF000E1F78CEB91E00E9481170E946E1C5DCF72
:103D0000811139CF0CC0243031050CF038CF9F70B1
:103D100009F431CFF8019581907F09F02CCF8F2DD8
:103D200062960FB6F894DEBF0FBECDBFDF91CF9184
:103D30001F910F91FF90EF90DF90CF9008951F9308
:103D4000CF93DF93CDB7DEB72C970FB6F894DEBFD5
:103D50000FBECDBF4F83588769877A878B879C8733
:103D6000CE0107960E94C91C882369F08F8198852F
:103D70002A853B85232BF1F19F3F09F063C08F3FDC
:103D800009F060C037C086E0FE013796DE0111966B
:103D900001900D928A95E1F76F817885EA85FB8520
:103DA000309741F17F3F11F46F3F21F120918B015A
:103DB00030E0C90101968770992740918A0150E04F
:103DC0008417950709F447C069837A83FD83EC83E0
:103DD00096E0929FD001939FB00D1124A457BE4F3F
:103DE000FE01319601900D929A95E1F780938B0137
:103DF0000E943F1C16E080918A0190918B018917E7
:103E0000C1F1189FC001112484579E4F0E94C91C04
:103E1000882379F1E0918A011E9FF0011124E45773
:103E2000FE4F4081518162817381848195810E941E
:103E30002F1C80918A0190E00196877099278093CA
:103E40008A01D9CF4F81588569857A858B859C8574
:103E50000E942F1CCFCF0E94F51B10928B01109255
:103E60008A01ECEBF1E086E0DF011D928A95E9F72B
:103E7000C1CF2C960FB6F894DEBF0FBECDBFDF9139
:103E8000CF911F910895EF92FF920F931F93CF93BD
:103E9000DF938C01892B09F46CC0F12CEE24E394A0
:103EA000E8012196F8018491843740F4843008F0C9
:103EB00051C0813081F0823019F15BC0853709F43F
:103EC00044C0A8F19CE7980F903708F052C08F7754
:103ED0000E94A51841C00E5F1F4FFE01C49180E2F1
:103EE0008C0F883048F4C7708E2D01C0880FCA959A
:103EF000EAF70E941E2214C08C2F0E9487172DC043
:103F00000E5F1F4FFE01C49180E28C0F883058F481
:103F1000C7708E2D01C0880FCA95EAF70E9424222F
:103F20000E94C8211AC08C2F0E94A51816C00E5FCF
:103F30001F4FFE01C491CC2381F08FE99FE00197D0
:103F4000F1F700C00000C150F6CF0E5F1F4FFE0119
:103F5000F49003C00E9487178E018F2D882309F4E7
:103F60009FCFEFE9FFE03197F1F700C000008150EB
:103F7000F5CFDF91CF911F910F91FF90EF900895B2
:103F800008950C94C01F0E94C11F60930202709399
:103F9000030280930402909305020C94DB1B0895A6
:103FA0000C94C31F0F931F93009102021091030200
:103FB0002091040230910502602B712B822B932BF0
:103FC0001F910F910C94C31F0F931F930091020236
:103FD00010910302209104023091050260237123A5
:103FE000822393231F910F910C94C31F0F931F9350
:103FF0000091020210910302209104023091050207
:1040000060277127822793271F910F910C94C31F5C
:1040100008950C9408200E9409206093FE0170937B
:10402000FF0180930002909301020C94DB1B60E07F
:1040300070E0CB010C940B200F931F9341E050E0F4
:1040400060E070E08A019B0104C0000F111F221F75
:10405000331F8A95D2F7C901B8011F910F910C94B3
:104060000B200F931F9341E050E060E070E004C02C
:10407000440F551F661F771F8A95D2F78091FE0166
:104080009091FF01A0910002B09101028A019B0171
:10409000082B192B2A2B3B2BC901B8011F910F911B
:1040A0000C940B200F931F9341E050E060E070E010
:1040B00004C0440F551F661F771F8A95D2F740959D
:1040C0005095609570958091FE019091FF01A091AF
:1040D0000002B09101028A019B01082319232A23BF
:1040E0003B23C901B8011F910F910C940B200F9332
:1040F0001F9341E050E060E070E004C0440F551FA2
:10410000661F771F8A95D2F78091FE019091FF017B
:10411000A0910002B09101028A019B010827192792
:104120002A273B27C901B8011F910F910C940B203E
:104130000F931F930091FE011091FF012091000247
:1041400030910102602B712B822B932B1F910F91C9
:104150000C940B200F931F930091FE011091FF010F
:104160002091000230910102602371238223932366
:104170001F910F910C940B200F931F930091FE0140
:104180001091FF01209100023091010260277127F8
:10419000822793271F910F910C940B20089520E103
:1041A000929F800D1124A82FA695A695A69587709D
:1041B00051E001C0550F8A95EAF785E0A89FD0012C
:1041C000112420E030E070E0F901EA0FFB1FEE530C
:1041D000FE4F4081CB01022E02C0969587950A942E
:1041E000E2F781709927819584278523842780832E
:1041F0002F5F3F4F2530310539F7089520E1929F19
:10420000800D1124682F669566956695982F977096
:1042100085E0689FB001112440E050E080E0FA01A1
:10422000E60FF71FEE53FE4F208130E0092E02C04B
:10423000369527950A94E2F721703327042E01C0A2
:10424000220F0A94EAF7822B4F5F5F4F45305105EA
:1042500031F70895CF92DF92EF92FF920F931F9361
:10426000CF93DF938C01C0900202D0900302E090C4
:104270000402F09005028091FE019091FF01A0914F
:104280000002B0910102C82AD92AEA2AFB2ACFE10A
:10429000D0E0D701C6010C2E04C0B695A79597951E
:1042A00087950A94D2F780FF06C0B8018C2F0E9430
:1042B000940B019721F4219760F780E001C08C2FC7
:1042C000DF91CF911F910F91FF90EF90DF90CF90F2
:1042D0000895CF93DF93EC010E942A21BE010E9432
:1042E000940BDF91CF9108951F93CF93DF93EB0150
:1042F00090918901992321F0CB010E94692113C07B
:10430000882349F0CB010E942A21182F682FCE0163
:104310000E94CF2004C0CB010E94FE20182FBE01B6
:10432000812F0E94940BDF91CF911F91089580916E
:10433000060285958595859508958091060287707A
:10434000089598E0899F90011124262B209306025E
:104350000C943120209106028095822380930602DE
:10436000982F977069F430E0482F082E000C550BF9
:104370002417350729F08595859585950C9452204D
:10438000089590910602977081E009F480E0089505
:10439000E0910D01F0910E0180912A028083E0915D
:1043A0000D01F0910E01908180912902892B80836B
:1043B000E0910D01F0910E01908180912802892BEE
:1043C000808380910702882381F0E0910D01F091B4
:1043D0000E019081892B808380910D0190910E01B7
:1043E0000E94BA2281111092070280910D019091D2
:1043F0000E010C94291680912A02089590912A02A8
:10440000892B80932A020895809590912A0289230E
:1044100080932A02089510922A0208959091290209
:10442000892B8093290208958095909129028923F0
:1044300080932902089510922902089590912802EC
:10444000892B8093280208958095909128028923D2
:1044500080932802089510922802089580930702FD
:10446000089510920702089580910702089580E050
:1044700090E00E94B13321E08D3E9E4F09F020E094
:10448000822F089582E090E00C94A333682F82E09D
:1044900090E00C94B73383E090E00C94A333682F42
:1044A00083E090E00C94B73384E090E00C94A33365
:1044B000682F84E090E00C94B73386E090E00C9491
:1044C000A333682F86E090E00C94B733AB01BC01B6
:1044D0008FE090E00C94C933AB01BC0183E190E024
:1044E0000C94C93360E070E0CB010C946C2260E066
:1044F00070E0CB010E9466220C9472226DEE7EEF7A
:1045000080E090E00E94D53360E082E090E00E947D
:10451000B73360E083E090E00E94B733109202026C
:1045200010920302109204021092050260E084E0EF
:1045300090E00E94B73360E085E090E00E94B733DE
:1045400060E086E090E00E94B7336FEF87E090E094
:104550000E94B73340E050E0BA0188E090E00E944A
:10456000C93360E08DE090E00E94B7330C9477226D
:104570000C947E22FC01329680911F01882331F039
:104580008091950287FF02C09EE101C096E080E025
:10459000915028F021912223D9F38F5FF9CF08950C
:1045A0009C01FC0132969FEF80E04191461789F013
:1045B0009F3F19F4411101C0982F8F5F8630A9F7F2
:1045C0009F3F39F0F901E90FF11D97FDFA956283DC
:1045D00008950895FC01329608962081261301C0A3
:1045E00010823196E817F907C1F70895262F26950E
:1045F000269526952E3168F4FC01E20FF11D6770B7
:1046000021E030E001C0220F6A95EAF78281282B71
:1046100022830895262F2695269526952E3170F40F
:10462000FC01E20FF11D677021E030E001C0220FB4
:104630006A95EAF7209582812823228308952091A4
:104640001F01222329F02091950227FD0C94F622C8
:104650000C94D02220911F01222329F02091950251
:1046600027FD0C940A230C94EA2220911F01FC01DF
:104670003296222331F08091950287FF02C08EE1AD
:1046800001C086E0DF011D928A95E9F7089508953B
:104690000C9447230E94482380919C02843061F14E
:1046A00010922C0220E488E190E00FB6F894A895CF
:1046B000809360000FBE2093600080E00E946E082F
:1046C00080E00E94E6080E94482383B7817F8460CF
:1046D00083BF83B7816083BF7894889583B78E7FCB
:1046E00083BF0FB6F894A89580916000886180938D
:1046F0006000109260000FBE089508950895CF9352
:104700000E947D230E94720E0E947E23C0E08C2FA7
:104710000E940A0F892B29F4CF5FC630C1F780E0D1
:1047200001C081E0CF91089508950C9494230E94D4
:10473000F51B0E94E9270E941D160E94E6080C94B2
:1047400095231F920F920FB60F9211248F939F9370
:10475000AF93BF9380912C02811113C0809191027D
:1047600090919202A0919302B09194024196A11D62
:10477000B11D8093910290939202A0939302B09303
:104780009402BF91AF919F918F910F900FBE0F90A8
:104790001F90189582E084BD93E095BD9AEF97BD78
:1047A00080936E0008952FB7F894809191029091B4
:1047B0009202A0919302B09194022FBF0895CF92DC
:1047C000DF92EF92FF920F931F932FB7F8944091CF
:1047D00091025091920260919302709194022FBFC6
:1047E0006A017B01EE24FF248C0120E030E0C0163A
:1047F000D106E206F30610F4415051099A01281B34
:10480000390BC9011F910F91FF90EF90DF90CF906E
:10481000089578941F920F920FB60F9211248F93E0
:104820009F93AF93BF938091910290919202A09138
:104830009302B09194020196A11DB11D8093910243
:1048400090939202A0939302B0939402BF91AF9180
:104850009F918F910F900FBE0F901F90189581E040
:104860008093E00080E28093D8001092C9008FE12D
:104870009EE40197F1F700C0000087E090EBDC01B7
:104880008093A5029093A602A093A702B093A802DA
:104890009CE088E10FB6F894A895809360000FBE65
:1048A00090936000FFCFAF92BF92CF92DF92EF92D2
:1048B000FF920F931F93CF93C0E0CC24C394D12CCD
:1048C000E82EF12C8C2F0E940A0F5C0100E010E012
:1048D0009601002E02C0220F331F0A94E2F72A210C
:1048E0003B21232B31F40F5F1F4F0031110581F75E
:1048F0000AC0602F7C2F80E00E94770BE816F90633
:1049000091F781E004C0CF5FC630E1F680E0CF913F
:104910001F910F91FF90EF90DF90CF90BF90AF90DD
:104920000895CF93C82F8CE20E945324882321F04E
:104930008C2FCF910C94532480E0CF910895CF9386
:104940000E943722811102C00E94B822C5E6C150E0
:1049500049F00E94720E8FE39CE90197F1F700C0C5
:104960000000F5CF89E20E94912481110FC18AE2F3
:104970000E94912481110E94B82285E00E94912416
:1049800081110E942F240E94422280932B0287E0F3
:104990000E9491248823A9F18BE10E94912488230D
:1049A00051F080912B0281FB222720F991E0922780
:1049B00090FB81F90EC08EE00E949124882361F063
:1049C00080912B0282FB222720F991E0922790FB15
:1049D00082F980932B0215C080E10E94912490916E
:1049E0002B02882341F093FB222720F981E08227C4
:1049F00080FB93F904C0892F809580FB90F99093F8
:104A00002B0280912B020E9446220E94542290E0A9
:104A1000909396028093950280EE0E9491248823C1
:104A200041F080919502982F909590FB80F98093AA
:104A3000950289E30E949124882359F08091950280
:104A400081FB222720F991E0922790FB81F9809346
:104A5000950282EE0E949124882359F0809195025C
:104A600082FB222720F991E0922790FB82F9809324
:104A7000950286EE0E949124882359F08091950238
:104A800083FB222720F991E0922790FB83F9809302
:104A9000950283EE0E949124882359F0809195021B
:104AA00084FB222720F991E0922790FB84F98093E0
:104AB000950285E30E949124882359F08091950204
:104AC00085FB222720F991E0922790FB85F98093BE
:104AD000950281E30E949124882359F080919502E8
:104AE00086FB222720F991E0922790FB86F980939C
:104AF000950281E10E949124882359F080919502CA
:104B000087FB222720F991E0922790FB87F9809379
:104B10009502809195020E94582287E20E9491247A
:104B2000C82F8EE10E9491248111C2608FE10E9402
:104B300091248111C46080E20E9491248111C86097
:104B400081E20E9491248111C06182E20E9491243D
:104B50008111C06283E20E9491248111C06484E2C9
:104B60000E949124882311F0C06802C0CC2329F050
:104B70008C2F0E944F226C2F03C00E944B22682F63
:104B800070E080E090E0CF910C94D01FCF91089519
:104B900080912F0280FF0BC06091120185E0689F19
:104BA000B001112475956795759567952BC081FFA8
:104BB00009C06091120185E0689FB00111247595CC
:104BC000679520C082FF07C06091120185E0689F51
:104BD000B001112417C0909130029923D1F0609157
:104BE0001101961788F72091120185E0289F900106
:104BF0001124929FA001939F500D112470E0CA01CF
:104C00000E9440336038710540F46115710539F038
:104C100002C065E070E0862F08958FE7089581E077
:104C2000089580912F0280FF08C06091100170E00C
:104C3000759567957595679521C081FF06C0609150
:104C4000100170E07595679519C082FF04C06091EE
:104C5000100170E010C0909130029923C1F0609172
:104C60000F019617A0F780911001899FC0011124B0
:104C700070E00E9440336038710528F461157105B9
:104C800021F0862F08958FE7089581E0089561E06F
:104C900070E0F4CF803F21F40E94C825819504C0C4
:104CA000813F29F40E94C825809334020895823FF1
:104CB00021F40E94C825819504C0833F29F40E94F5
:104CC000C825809333020895893F19F40E94112664
:104CD00005C08A3F31F40E941126819580933502E8
:104CE00008958B3F21F40E941126819504C08C3FCA
:104CF00029F40E941126809336020895843F21F4FE
:104D000080913202816017C0853F21F48091320288
:104D1000826011C0863F21F48091320284600BC012
:104D2000873F21F480913202886005C0883F31F4CA
:104D30008091320280618093320208958D3F21F488
:104D400080912F0281600BC08E3F21F480912F0251
:104D5000826005C08F3F29F480912F028460809388
:104D60002F020895803F39F48091340287FF6CC090
:104D70001092340269C0813F29F4809134021816E0
:104D8000BCF362C090913302823F29F497FF5CC06C
:104D90001092330259C0833F19F41916CCF354C052
:104DA000893F41F48091350218160CF04DC01092E5
:104DB00035024AC08A3F29F48091350287FF44C0FA
:104DC000F6CF8B3F39F48091360287FF3DC01092B9
:104DD00036023AC08C3F29F4809136021816BCF393
:104DE00033C0843F21F4809132028E7F17C0853F0B
:104DF00021F4809132028D7F11C0863F21F4809191
:104E000032028B7F0BC0873F21F480913202877F73
:104E100005C0883F31F4809132028F7E8093320248
:104E200013C08D3F21F480912F028E7F0BC08E3FE7
:104E300021F480912F028D7F05C08F3F29F480914E
:104E40002F028B7F80932F028091330281110EC03D
:104E50008091340281110AC080913502811106C00F
:104E600080913602811102C010923002089581E3D0
:104E700092E00E9443160E94D32390932E028093C7
:104E80002D0208951F93CF93DF9380912D0290916F
:104E90002E020E94DF23AC0190913002992321F071
:104EA0002091130130E006C0209114018AE0289F70
:104EB000900111244217530708F47BC080913302FC
:104EC000C0913402D091350210913602811107C091
:104ED000C1116BC0D11169C0111167C06AC09F3F79
:104EE00019F09F5F90933002181624F40E94C82591
:104EF000809333028091330287FF05C00E94C8254A
:104F00008195809333021C1624F40E94C825809357
:104F100034028091340287FF05C00E94C825819524
:104F200080933402309133023323E1F02091340234
:104F30002223C1F045EB3403C0011124892F990FBE
:104F4000990B009709F481E08093330235EB23033A
:104F5000C0011124892F990F990B009709F481E062
:104F6000809334021D1624F40E941126809335028A
:104F70008091350287FF05C00E941126819580939C
:104F80003502111624F40E94112680933602809176
:104F9000360287FF05C00E94112681958093360254
:104FA000DF91CF911F910C9437279F3F09F099CF44
:104FB000A1CFDF91CF911F910895E1E3F2E086E068
:104FC000DF011D928A95E9F71092300210922F02AC
:104FD00008950E943722811102C00E94B8220E94C7
:104FE0005D2280939702282F269530E026303105E8
:104FF00024F081708A60809397028091970280FFED
:1050000002C0869501C080E00C946E082091970242
:10501000822F8695482F50E04530510544F48F5F2C
:10502000982F990F822F8170892B809397028091FE
:1050300097028160809397020E946122809197027B
:1050400086950C946E0880919702982F969591F012
:105050009158990F8170892B809397028E7F91E0F0
:1050600009F490E08091970290FB80F98093970279
:105070000E9461228091970286950C946E0880911F
:10508000970280FD11C0816080939702813019F4EE
:1050900083E080939702809197020E946122809121
:1050A000970286950C946E0808958091970280FF70
:1050B00008C08E7F809397020E94612280E00C944A
:1050C0006E0808958091970280FD0C9455280C94E9
:1050D0003F2890919702892F86958F5F8F779170E7
:1050E000863028F4880F892B8093970202C0909312
:1050F0009702809197028E7F91E009F490E0809171
:10510000970290FB80F9809397020E946122809120
:10511000970286950C946E08863008F085E0880F1B
:10512000909197029170892B809397028E7F91E0E6
:1051300009F490E08091970290FB80F980939702A8
:105140000E9461228091970286950C946E0880914E
:10515000570208950F931F93CF93DF9300D01F92B0
:10516000CDB7DEB78C010E941A2B823011F084304B
:1051700021F584E089831B830A8382E08093E90020
:105180008FEF9091E800815095FD06C095ED9A95BE
:10519000F1F700008111F5CF8091E80085FF0DC087
:1051A00040E050E063E070E0CE0101960E94372BB2
:1051B0008091E8008E778093E8000F900F900F9019
:1051C000DF91CF911F910F910895CF93DF9300D07E
:1051D0001F92CDB7DEB720919C02243031F523E039
:1051E0002983805891099B838A8382E08093E90018
:1051F0008FEF9091E800815095FD06C095ED9A954E
:10520000F1F700008111F5CF8091E80085FF0DC016
:1052100040E050E063E070E0CE0101960E94372B41
:105220008091E8008E778093E8000F900F900F90A8
:10523000DF91CF910895CF93DF93EC010E941A2B59
:10524000823011F08430F9F482E08093E9009FEF1E
:105250008091E800915085FD06C085ED8A95F1F7B3
:1052600000009111F5CF8091E80085FF0CC040E06F
:1052700050E066E070E0CE010E94372B8091E8009C
:105280008E778093E800DF91CF910895CF93DF93DD
:10529000EC010E941A2B823011F08430D9F58091F4
:1052A0001F01882339F08091950287FF03C060E2D7
:1052B00082E002C068E081E08093E9008FEF909186
:1052C000E800815095FD06C095ED9A95F1F7000034
:1052D0008111F5CF8091E80085FF1CC080911F01EE
:1052E000811105C040E050E068E070E003C070E06C
:1052F00040E050E0CE010E94372B8091E8008E778D
:105300008093E80080E2FE01A7E3B2E001900D92F5
:105310008A95E1F7DF91CF91089580919B028111E9
:1053200009C00E94CC2C0E94292D8091E20084604B
:105330008093E200089510929B02089508950895C5
:105340000C94972342E061EC81E00E94462C42E2FB
:1053500061EC82E00C94462C80919E02833009F42B
:1053600060C030F4813071F0823009F499C0089542
:105370008A3009F485C08B3009F46BC0893009F09C
:10538000A7C020C080919D02813A09F0A1C0809100
:10539000E800877F8093E8008091A1029091A202AB
:1053A000892B21F460E287E392E003C060E080E0B3
:1053B00090E070E00E94822B8091E8008B778093D0
:1053C000E800089580919D02813209F081C08091AA
:1053D000A1029091A202029708F07AC08091E800A1
:1053E000877F8093E8008091E80082FD05C080916E
:1053F0009C028111F8CF6CC02091F3008091F200E3
:1054000090E0922B029729F48091F1008B7F8130FC
:1054100021F48091F100809357028091E8008B770E
:1054200053C080919D02813A09F052C08091A1023F
:105430009091A202892B09F04BC08091E800877FF0
:105440008093E8008091E80080FFFCCF80911F01ED
:1054500036C080919D028132D9F58091A102909150
:10546000A202892BA9F58091E800877F8093E8004C
:105470000E947B2C80919F0280931F010C94F51B4E
:1054800080919D02813221F58091E800877F809391
:10549000E8000E947B2C8091A0028093580208951E
:1054A00080919D02813AA1F48091E800877F8093EA
:1054B000E8008091E80080FFFCCF80915802809343
:1054C000F1008091E8008E778093E8000C947B2CAB
:1054D000089584B7877F84BF0FB6F894A89580910C
:1054E0006000886180936000109260000FBE80E8C9
:1054F00080936100109261000E9485160E94CC2C5E
:105500000E94292D8091E20084608093E2007894CB
:105510000E94B82F0E948B1685E191E00E94181618
:1055200080919C02853069F40E944A2380919A02FE
:105530008823B1F30E947F23882391F30E94212BBB
:10554000EFCF0E9495160E94A315EACF0C94A82ACB
:10555000292F332723303105C9F064F42130310578
:1055600081F02230310509F04CC08BE390E024ED4E
:105570003EE04BC02132310521F12232310589F163
:1055800040C082E190E02FE03FE03FC099278130AA
:10559000910571F02CF4892BA1F5E0EDFEE00DC032
:1055A0008230910541F0039761F5ECEAFEE005C019
:1055B000E0ECFEE002C0E2EBFEE0849190E09F01AF
:1055C00024C06115710541F061307105D1F489E0A5
:1055D00090E02FEF3EE019C089E090E026EE3EE03B
:1055E00014C06115710541F06130710551F480EC12
:1055F00090E021E23FE009C080E490E021EE3FE04E
:1056000004C080E090E020E030E0FA0131832083A4
:1056100008950895CF93C82F0E94092BC093590273
:10562000CF91089580919C02843011F081E008951B
:1056300082E0089580915902811102C00C94122BCE
:10564000089580E189BD82E189BD09B400FEFDCFE6
:105650008091D8008F7D8093D8008091E000826097
:105660008093E0008091E00081FDFCCF0895CF920F
:10567000DF92EF92FF920F931F93CF93DF93EC0192
:105680008B016A010E949A2C811133C0C114D1048C
:1056900039F0F60180819181081B190BC80FD91FC1
:1056A000E12CF12C0115110519F18091E80085FD1F
:1056B00016C08091E8008E778093E800C114D10471
:1056C00049F0F60180819181E80EF91EF182E082B5
:1056D00085E00FC00E949A2C882321F30AC089918B
:1056E0008093F10001501109FFEFEF1AFF0ADACFA2
:1056F00080E0DF91CF911F910F91FF90EF90DF90AD
:10570000CF9008952091A3023091A4022617370765
:1057100048F06115710539F42091E8002E77209347
:10572000E80001C0B90140E061157105A9F12091BF
:105730009C02222309F443C0253009F442C0209181
:10574000E80023FD40C02091E80022FD32C02091F6
:10575000E80020FFE9CF4091F3002091F20030E013
:10576000342BFC01CF016115710559F0283031054A
:1057700040F481918093F100615071092F5F3F4F98
:10578000F1CF41E02830310509F040E02091E800F8
:105790002E772093E800C8CF4111C9CF0AC080916D
:1057A0009C02882361F0853061F08091E80083FDE0
:1057B0000AC08091E80082FFF2CF80E0089582E085
:1057C000089583E0089581E008952091A302309127
:1057D000A4022617370748F06115710539F42091A6
:1057E000E8002E772093E80001C0B901FC0120E019
:1057F0006115710591F180919C02882309F440C0E4
:10580000853009F43FC08091E80083FD3DC0809160
:10581000E80082FD2FC08091E80080FFE9CF209151
:10582000F3008091F20090E0922B6115710559F020
:105830008830910540F424912093F1003196615015
:1058400071090196F2CF21E0089709F020E08091DC
:10585000E8008E778093E800CBCF2111CCCF0AC02F
:1058600080919C02882361F0853061F08091E8008E
:1058700083FD0AC08091E80082FFF2CF80E00895A6
:1058800082E0089583E0089581E00895982F97308D
:1058900058F59093E900981739F07091EC00209139
:1058A000ED005091F00003C0242F762F50E021FF2F
:1058B00019C03091EB003E7F3093EB003091ED004A
:1058C0003D7F3093ED003091EB0031603093EB0081
:1058D0007093EC002093ED005093F0002091EE00C7
:1058E00027FF07C09F5FD3CF8F708093E90081E0CF
:1058F000089580E0089580919D0287FF11C08091F6
:10590000E80082FD05C080919C028111F8CF11C092
:105910008091E8008B770BC080919C02882349F02E
:105920008091E80080FFF8CF8091E8008E77809327
:10593000E80008952091E4003091E50095E640915B
:10594000EC00842F817040FF22C08091E80080FD30
:105950001CC080919C02882391F0853091F0809149
:10596000EB0085FD10C04091E4005091E500421726
:10597000530729F39A01915011F784E0089582E0CA
:10598000089583E0089581E0089580E008954091AE
:10599000E80042FFDECF08950E943A2D0E94422D7A
:1059A000E0EEF0E0808181608083E8EDF0E08081CE
:1059B0008F77808319BCA7EDB0E08C918E7F8C939C
:1059C00080818F7E808310929B0208950F931F9396
:1059D000CF93DF930E943A2D0E94422DC8EDD0E074
:1059E00088818F77888388818068888388818F7D8C
:1059F000888319BC10929C021092980210929A020D
:105A00001092990200EE10E0F80180818B7F808374
:105A100088818160888342E060E080E00E94462CBB
:105A2000E1EEF0E080818E7F8083E2EEF0E0808125
:105A300081608083808188608083F80180818E7F8F
:105A40008083888180618883DF91CF911F910F913E
:105A50000895E8EDF0E080818F7E8083E7EDF0E04F
:105A600080818160808384E082BF81E080939B029B
:105A70000C94E62CE8EDF0E080818E7F808310921C
:105A8000E20008951092DA001092E10008951F924A
:105A90000F920FB60F9211242F933F934F935F9362
:105AA0006F937F938F939F93AF93BF93EF93FF93E6
:105AB0008091E10082FF0BC08091E20082FF07C06D
:105AC0008091E1008B7F8093E1000E94B72F80914D
:105AD000DA0080FF1FC08091D80080FF1BC080913A
